:100000000C9472000C9494000C9494000C94940042
:100010000C9494000C9494000C9494000C94940010
:100020000C9494000C9494000C9494000C94940000
:100030000C9494000C9494000C9494000C94E80498
:100040000C9494000C9494000C9494000C949400E0
:100050000C9494000C9494000C9494000C949400D0
:100060000C9494000C9494060C9494000C946506E3
:100070000C9494000C9494000C9494000C949400B0
:100080000C9494000C9494000C9494000C949400A0
:100090000C9494000C9494000C9494000C94940090
:1000A0000C9494000C9494000C9494000C94940080
:1000B0000C9494000C9494000C9494000C94940070
:1000C0000C9494000C9494000C9494000C94940060
:1000D0000C9494000C9494000C9494000C94940050
:1000E0000C94940011241FBECFEFD1E2DEBFCDBF30
:1000F00000E00CBF12E0A0E0B2E0E6EDF8E100E0C5
:100100000BBF02C007900D92A03DB107D9F71BBEEF
:1001100014E0A0EDB2E001C01D92AD30B107E1F7EF
:100120000E94FF060C94690C0C940000EF92FF9261
:100130001F93CF93DF93CDB7DEB728970FB6F89410
:10014000DEBF0FBECDBF009719F0FC01108101C0CA
:1001500011E680E0E82E82E0F82E0F920F92EDB7C4
:10016000FEB7F282E1820E943B090F900F9040910E
:10017000070450910804CE01019668E070E00E94E7
:10018000E1080097C9F00E945F012981FC012083EA
:100190001182183629F0143731F0143651F406C0A4
:1001A0000E946701DACF0E947C01D7CF0E94CA016A
:1001B000D4CF0E949301D1CF0E9401020E942E024F
:1001C00028960FB6F894DEBF0FBECDBFDF91CF915A
:1001D0001F91FF90EF9008950F931F93CF93DF939C
:1001E000CDB7DEB762970FB6F894DEBF0FBECDBFB6
:1001F00003E012E00F920F92EDB7FEB71283018376
:100200000E943B090F900F90409107045091080401
:10021000CE01019668E070E00E94E108009761F06D
:10022000CE0101960E947F08BC01009729F0CE0103
:1002300009960E94A703DECF0E941A040E945C0464
:1002400062960FB6F894DEBF0FBECDBFDF91CF919F
:100250001F910F910895CF93DF93009749F166E0C6
:1002600072E00E949D08009701F10E947F08EC0156
:1002700080E090E066E072E00E949D080097C1F087
:100280000E947F0800D00F9228E032E0EDB7FEB761
:1002900032832183C80FD91FD483C3830E943B09B3
:1002A0000F900F900F900F9007C08BE192E002C06B
:1002B00082E192E00E945409DF91CF91089584E099
:1002C00090E00E94500708950E94E6070895FC01FF
:1002D0008091D0029091D102009739F4F093D1022D
:1002E000E093D00213821282089593838283F09365
:1002F000D102E093D0020895E091D002F091D102B2
:10030000309731F49093D1028093D00208C0F90164
:100310002281338121153105D1F793838283FC013A
:10032000138212820895CF93DF93FC012091D002B3
:100330003091D1022115310531F040815181D9012F
:10034000C0E0D0E00FC09093D1028093D00213821E
:1003500012821DC012968D919C911397ED0100970A
:1003600039F0DC018D919C9111978417950794F3D6
:10037000209739F433832283F093D102E093D002A3
:1003800006C08A819B8193838283FB83EA83DF910A
:10039000CF910895CF93DF93FC012091D00230914B
:1003A000D1022115310531F040815181D901C0E0E0
:1003B000D0E00FC09093D1028093D00213821282BA
:1003C0001DC012968D919C911397ED01009739F005
:1003D000DC018D919C9111978417950794F32097D8
:1003E00039F48A819B8193838283FB83EA8306C0ED
:1003F00033832283F093D102E093D002DF91CF9137
:1004000008950F931F93CF93DF938AE090E00E94AB
:100410004D09C091D002D091D10201E212E013C087
:1004200000D00F92EDB7FEB71283018388819981C6
:10043000948383830E943B090A80DB81C02D0F9047
:100440000F900F900F90209759F78AE090E00E944C
:100450004D09DF91CF911F910F91089509C0FC01C3
:10046000228133813093D1022093D0020E94E6078B
:100470008091D0029091D102009789F70895CF938F
:10048000DF93FC0162E070E00E942907EB0122E0AB
:1004900030E008C0CF01B9010E942907009741F060
:1004A0002F5F3F4FC217D307ACF781E090E002C047
:1004B00080E090E0DF91CF910895CF92DF92EF92AC
:1004C000FF920F931F93CF93DF93009721F00E9429
:1004D0007F087C0104C090EDE92E97E0F92E00E042
:1004E00010E0C2E0D0E08BE2C82E82E0D82E16C029
:1004F000CE010E943F02009781F00F5F1F4F00D096
:100500000F92EDB7FEB7D282C182D483C3830E941B
:100510003B090F900F900F900F902196EC16FD065F
:100520003CF700D00F9286E492E0EDB7FEB79283DD
:100530008183148303830E943B090F900F900F90D7
:100540000F90DF91CF911F910F91FF90EF90DF906F
:10055000CF900895CF92DF92EF92FF920F931F9367
:10056000CF93DF93009741F0FC012081222321F0FB
:100570000E947F088C0102C000ED17E0EE24FF24EA
:10058000C2E0D0E02BE2C22E22E0D22E17C0CE0174
:100590000E943F02009789F00894E11CF11C00D0F2
:1005A0000F92EDB7FEB7D282C182D483C3830E947B
:1005B0003B090F900F900F900F9021960C171D077D
:1005C00034F700D00F9286E492E0EDB7FEB7928345
:1005D0008183F482E3820E943B090F900F900F9079
:1005E0000F90DF91CF911F910F91FF90EF90DF90CF
:1005F000CF90089510921B0310921A0310921903C2
:100600001092180310921D0310921C031092D7022F
:100610001092D6020895482F20911C0330911D039B
:100620002F5F3F4FC90160E470E00E9429079C01E1
:100630008091D6029091D7022817390759F030934C
:100640001D0320931C03225E3C4FF901408381E08F
:1006500090E0089580E090E008958091D602909116
:10066000D70220911C0330911D032817390779F018
:10067000019660E470E00E9429079093D70280936E
:10068000D602825E9C4FFC01808190E0089580E05C
:1006900090E00895482F20911A0330911B032F5F9B
:1006A0003F4FC90160E470E00E9429079C018091DE
:1006B0001803909119032817390759F030931B0339
:1006C00020931A0328523D4FF901408381E090E0C6
:1006D000089580E090E008958091180390911903A7
:1006E00020911A0330911B032817390779F00196DE
:1006F00060E470E00E942907909319038093180327
:1007000088529D4FFC01808190E0089580E090E048
:1007100008958091D6029091D70220911C033091C8
:100720001D038217930759F0019660E470E00E9460
:100730002907825E9C4FFC01808190E0089580E053
:1007400090E008958EE090E00E9450070895EF92A7
:10075000FF920F931F93CF93DF93F82EE92E8B0117
:100760000E94A203EC01DC011296EF2DFE2D8AE01F
:1007700001900D928150E1F719830883E091D20234
:10078000F091D302309729F4D093D302C093D202D0
:100790002FC040E050E020E030E001C0FD0180814A
:1007A0009181280F391F2017310734F4A485B585AE
:1007B000AF01109799F701C0DF014115510579F498
:1007C0008D919C911197801B910B11969C938E9308
:1007D000BD87AC87D093D302C093D20224C01097B8
:1007E00051F4021B130B19830883FA01D587C487C0
:1007F0001D861C8618C08D919C911197B901681BAC
:10080000790B9801261B370B398328838D919C9196
:100810001197821B930B11969C938E93FA01D587A7
:10082000C487BD87AC87DF91CF911F910F91FF9057
:10083000EF900895EF92FF920F931F93CF93DF9362
:100840008AE090E00E944D09C091D202D091D3027B
:1008500000E010E082E5E82E82E0F82E20C08881DA
:100860009981080F191F00D000D0EDB7FEB731965F
:10087000ADB7BEB71296FC92EE9211979383828326
:10088000158304830E943B090C84DD85C02D8DB740
:100890009EB706960FB6F8949EBF0FBE8DBF2097E9
:1008A000F1F68AE090E00E944D09DF91CF911F910F
:1008B0000F91FF90EF90089509C0FC0124853585C4
:1008C0003093D3022093D2020E94E6078091D20295
:1008D0009091D302009789F708951092B200E6EB49
:1008E000F0E0808180628083E0E7F0E080818160D9
:1008F0008083E1EBF0E08081816080838081826091
:100900008083089510925F0310925E031092010499
:10091000109200040895CF93DF93482FE92F809120
:100920005E0390915F03C0910004D0910104019691
:1009300020E130E0B9010E9429078C179D0731F1B1
:1009400080915E0390915F030196B9010E9429078F
:1009500090935F0380935E0380915E0390915F03A9
:10096000DC01AA0FBB1F63E0880F991F6A95E1F7AE
:10097000A80FB91FA05ABC4FC42FDE2F8AE00990E0
:100980000D928150E1F781E090E002C080E090E0BC
:10099000DF91CF910895CF93DF930DC08C859D8516
:1009A0009093D3028093D202CE0102960E948B04D0
:1009B000CE010E94E607C091D202D091D3022097C7
:1009C00021F088819981009749F3DF91CF910895B3
:1009D0001F920F920FB60F920BB60F9211242F9306
:1009E0003F934F935F936F937F938F939F93AF93B7
:1009F000BF93EF93FF93E091D202F091D30230972F
:100A000049F080819181019791838083009711F44F
:100A10000E94CB04FF91EF91BF91AF919F918F9175
:100A20007F916F915F914F913F912F910F900BBEEE
:100A30000F900FBE0F901F9018959C0140915E0380
:100A400050915F0380910004909101044817590769
:100A500031F18091000490910104019660E170E011
:100A60000E94290790930104809300048091000460
:100A700090910104FC01EE0FFF1FA3E0880F991F66
:100A8000AA95E1F7E80FF91FD901E05AFC4F8AE077
:100A900001900D928150E1F781E090E0089580E0AF
:100AA00090E00895AF92BF92CF92DF92EF92FF92C3
:100AB0000F931F93CF93DF93CDB7DEB7CA54D040C7
:100AC0000FB6F894DEBF0FBECDBF0E94FC060097A4
:100AD00009F47CC0CE010B960E941509009729F4F9
:100AE0008DE592E00E945409FFCFCE010B9662E79C
:100AF00072E00E949D088C0180E090E062E772E065
:100B00000E949D087C0180E090E062E772E00E9414
:100B10009D085C0180E090E062E772E00E949D0821
:100B20006C010115110509F445C0C8016AE772E0BE
:100B30000E94A208009721F4C7010E94AA023AC0AD
:100B4000C80160E872E00E94A208009779F5E114FC
:100B5000F10419F486E892E02BC0C7010E947F08D7
:100B60008C01C5016AE772E00E94A2080097D9F4DF
:100B70008AEA92E09A838983CE010396C114D10454
:100B800011F0B60102C06EE872E00E94AB08F89462
:100B9000C80160E071E00E942907CE0101960E9421
:100BA000A703789407C08FE892E002C087E992E03B
:100BB0000E9454090F920F9287E792E0EDB7FEB7BB
:100BC000928381830E943B090F900F90C65BDF4F99
:100BD0000FB6F894DEBF0FBECDBFDF91CF911F914E
:100BE0000F91FF90EF90DF90CF90BF90AF9008955E
:100BF000F8940E942D0378948823D1F3843011F067
:100C000090E008958FEF9FEF0895CF93C82F8A301B
:100C100019F48DE00E940506F8948091020488235F
:100C200059F4C093C60081E0809302040AC078940E
:100C300086EF8A95F1F7F8948C2F0E944A0300976B
:100C4000B1F3789481E090E0CF9108958BEA92E03F
:100C5000909308048093070489EB92E090930A0430
:100C6000809309040E94FA02109202041092C500B7
:100C700087E08093C400E0ECF0E0808182608083B4
:100C8000E1ECF0E0808188608083808180648083F3
:100C90008081806180838081806880830895CF9384
:100CA000C82F8A3019F48DE00E944F06809102040B
:100CB000882331F4C093C60081E08093020403C00E
:100CC0008C2F0E944A03CF9108951F920F920FB666
:100CD0000F920BB60F9211242F933F934F935F9374
:100CE0006F937F938F939F93AF93BF93EF93FF93F4
:100CF0000E946C03882319F41092020402C08093AE
:100D0000C600FF91EF91BF91AF919F918F917F911D
:100D10006F915F914F913F912F910F900BBE0F906C
:100D20000FBE0F901F9018951F920F920FB60F9243
:100D30000BB60F9211241F932F933F934F935F9302
:100D40006F937F938F939F93AF93BF93EF93FF9393
:100D5000CF93DF93CDB7DEB72A97DEBFCDBF10911B
:100D6000C6001B3161F48091C7029091C8020196C0
:100D7000817090709093C8028093C70224C0143091
:100D800069F01D3009F41AE02091C7023091C802C1
:100D90002115310519F0812F0E944F06812F0E94E5
:100DA0000B03143011F01A3071F482E595E09A8348
:100DB0008983CE0103966AEA72E00E94AB08CE01F5
:100DC00001960E948B042A96DEBFCDBFDF91CF91A2
:100DD000FF91EF91BF91AF919F918F917F916F9113
:100DE0005F914F913F912F911F910F900BBE0F90EC
:100DF0000FBE0F901F9018950E9489030895CF93FE
:100E0000DF93CDB7DEB72A970FB6F894DEBF0FBEDB
:100E1000CDBF0E9426060E9482040E946D040F929C
:100E20000F9288E292E0EDB7FEB7928381830E9431
:100E30003B090F900F90F894CE0101960E941D057A
:100E400078940097C1F3E981FA81CE010396199550
:100E5000F2CF97FB092E07260AD077FD04D00CD0DD
:100E600006D000201AF4709561957F4F0895F6F72B
:100E7000909581959F4F0895AA1BBB1B51E107C018
:100E8000AA1FBB1FA617B70710F0A61BB70B881F1A
:100E9000991F5A95A9F780959095BC01CD010895A9
:100EA000CF93DF93AC018230910510F442E050E023
:100EB000E0910504F091060420E030E0A0E0B0E00D
:100EC00024C08081918184179507D0F084179507FD
:100ED00071F482819381109729F013969C938E93DD
:100EE00012972CC0909306048093050427C0211507
:100EF000310519F08217930718F49C01BD01EF0129
:100F000092818381DF01E92FF82F3097D1F62115E7
:100F10003105F9F0C901841B950B8430910580F4EB
:100F20008A819B816115710521F0FB019383828386
:100F300004C09093060480930504FE01329642C0DB
:100F4000FE01E80FF91F419351930297998388831B
:100F500039C08091030490910404009741F480917A
:100F6000CB029091CC0290930404809303042091CF
:100F7000C9023091CA022115310541F42DB73EB79F
:100F80008091CD029091CE02281B390BE091030491
:100F9000F0910404E217F30798F42E1B3F0B24177B
:100FA000350770F0CA0102962817390748F08E0FEE
:100FB0009F1F90930404809303044193519302C0B4
:100FC000E0E0F0E0CF01DF91CF9108950F931F9300
:100FD000CF93DF939C01009709F48CC0DC0112973A
:100FE00013961C921E92129760910504709106044C
:100FF0006115710589F48D919C911197820F931F52
:1010000020910304309104042817390769F5B0933F
:101010000404A09303046EC0FB0140E050E001C053
:10102000FC01EA17FB0730F482819381AF0100973E
:10103000B9F71FC0E9012297FB83EA830881198170
:10104000C901800F911F8E179F0759F480819181EC
:10105000800F911F029699838883828193819B835D
:101060008A834115510529F4B0930604A093050421
:1010700041C0FA01B383A283C191D191EC0FFD1F4E
:10108000AE17BF0781F4F901929182918C0F9D1FD9
:101090000296DA0111969C938E9382819381139626
:1010A0009C938E931297E0E0F0E002C0FB01BC013C
:1010B000DB0112968D919C9113970097B9F7CB01A4
:1010C00002962D913C911197820F931F209103045A
:1010D000309104042817390769F4309729F41092E5
:1010E00006041092050402C0138212827093040455
:1010F00060930304DF91CF911F910F910895FC013C
:1011000088279927E89421912032E9F3293010F0BB
:101110002E30C8F32B3241F02D3239F4689404C0DC
:101120000E94D908820F911D219120532A30C0F3CB
:101130001EF4909581959F4F089544ED52E00E94D2
:10114000B2080895FB01DC018D9101908019011016
:10115000D9F3990B0895FB01DC0101900D92002059
:10116000E1F70895FA01A191B081009719F4109761
:10117000E1F0CD01DC01CD010D90002011F4C001A2
:1011800013C0FB012191222319F02015D9F7F3CFC9
:10119000FB012191201519F41E92119606C02223FD
:1011A000C1F70D900020A1F7D001FA01A193B083FF
:1011B00008957AE0979F902D879F802D910D11249F
:1011C0000895CF92DF92EF92FF920F931F93CF93E8
:1011D000DF938C016A01FA01838180FF1AC0161621
:1011E0001706BCF47B01E8010EC0C6010E949F0BEC
:1011F000FFEF8F3F9F0769F089930894E108F1089A
:101200008A30910521F021E0E216F10471F718828D
:1012100002C000E010E0C801DF91CF911F910F9153
:10122000FF90EF90DF90CF9008950F931F93CF938F
:10123000DF938C01E0910704F0910804838180FF23
:1012400012C0E80180910704909108040E949F0B4E
:101250002FEF8F3F920739F089938A30910591F7EC
:101260002197188202C000E010E0C801DF91CF9101
:101270001F910F910895CF93DF93CDB7DEB7FE0195
:101280003696619171918091090490910A04AF01A1
:101290000E948209DF91CF910895609109047091B5
:1012A0000A040E94DF0B08950F931F93CF93DF93DF
:1012B0008C01E0910904F0910A04838181FF1AC036
:1012C000C0E0D0E005C01995009711F0CFEFDFEF37
:1012D000F80181918F016091090470910A04DB018A
:1012E0001896ED91FC911997882369F78AE0199572
:1012F000009711F0CFEFDFEFCE01DF91CF911F917B
:101300000F9108952F923F924F925F926F927F922A
:101310008F929F92AF92BF92CF92DF92EF92FF9205
:101320000F931F93CF93DF93CDB7DEB72D970FB6F3
:10133000F894DEBF0FBECDBF3C017D876C875A019C
:10134000FC0117821682838181FFC8C12E01089497
:10135000411C511CF3019381EC85FD8593FD859122
:1013600093FF8191FD87EC87882309F4B3C185320F
:1013700041F493FD859193FF8191FD87EC87853240
:1013800029F490E0B3010E94DF0BE4CFFF24EE24A8
:1013900010E01032B0F48B3269F08C3228F48032D5
:1013A00051F0833271F40BC08D3239F0803349F43F
:1013B00011602CC01260146029C0186027C0106131
:1013C00025C017FD2EC0282F20532A3098F416FF71
:1013D00008C08F2D880FF82EFF0CFF0CF80EF20EB0
:1013E00015C08E2D880FE82EEE0CEE0CE80EE20EE6
:1013F00010620CC08E3221F416FD6CC1106406C060
:101400008C3611F4106802C0883659F4EC85FD85DD
:1014100093FD859193FF8191FD87EC87882309F0E7
:10142000B8CF982F9554933018F09052933038F4E9
:1014300024E030E0A20EB31E3FE339830FC08336B1
:1014400031F0833781F0833509F05AC022C0F501AD
:101450008081898322E030E0A20EB31E21E0C22EFB
:10146000D12C420114C092E0292E312C2A0C3B1CB5
:10147000F5018080918016FF03C06F2D70E002C0DF
:101480006FEF7FEFC4010E94940B6C0151011F7735
:1014900015C082E0282E312C2A0C3B1CF5018080DF
:1014A000918016FF03C06F2D70E002C06FEF7FEFD9
:1014B000C4010E94890B6C011068510113FD1CC00E
:1014C00006C080E290E0B3010E94DF0BEA948E2D0B
:1014D00090E0C816D906A8F30FC0F40117FD859156
:1014E00017FF81914F0190E0B3010E94DF0BE110E3
:1014F000EA940894C108D108C114D10471F7E7C077
:10150000843611F0893651F5F50117FF07C0808147
:101510009181A281B38124E030E008C08081918173
:10152000AA2797FDA095BA2F22E030E0A20EB31EA5
:10153000012F0F76B7FF08C0B095A09590958195C3
:101540009F4FAF4FBF4F0068BC01CD01A2012AE001
:1015500030E00E940B0CD82ED4183FC0853721F400
:101560001F7E2AE030E020C0197F8F36A9F0803737
:1015700020F4883509F0AEC00BC0803721F08837E1
:1015800009F0A8C001C0106114FF09C0146007C0B1
:1015900014FF08C0166006C028E030E005C020E156
:1015A00030E002C020E132E0F50117FF07C06081A2
:1015B00071818281938144E050E006C06081718135
:1015C00080E090E042E050E0A40EB51EA2010E942F
:1015D0000B0CD82ED418012F0F7706FF09C00E7FF1
:1015E000DF1430F404FF06C002FD04C00F7E02C009
:1015F0001D2D01C01F2D802F90E004FF0CC0FE01A7
:10160000ED0DF11D2081203311F4097E09C002FF88
:1016100006C01E5F05C086789070009709F01F5FB6
:10162000802E992403FD12C000FF0DC0FD2C1E1555
:1016300050F4FE0CF11A1E2D06C080E290E0B301BA
:101640000E94DF0B1F5F1E15C0F304C01E1510F4AF
:10165000E11A01C0EE2484FE0FC080E390E0B301E4
:101660000E94DF0B82FE1FC081FE03C088E590E070
:1016700010C088E790E00DC0C40186789070009794
:1016800091F081FC02C080E201C08BE207FD8DE297
:1016900090E0B3010E94DF0B06C080E390E0B3014D
:1016A0000E94DF0BFA94DF14C0F3DA94F201ED0D1F
:1016B000F11D808190E0B3010E94DF0BDD20A9F7CE
:1016C00006C080E290E0B3010E94DF0BEA94EE20B6
:1016D000C1F740CEF3018681978102C08FEF9FEF63
:1016E0002D960FB6F894DEBF0FBECDBFDF91CF9120
:1016F0001F910F91FF90EF90DF90CF90BF90AF9030
:101700009F908F907F906F905F904F903F902F9021
:101710000895FC010590615070400110D8F7809544
:1017200090958E0F9F1F0895FC01615070400190AD
:101730000110D8F7809590958E0F9F1F0895CF9335
:10174000DF93EC012B8120FF35C026FF09C02F7BE2
:101750002B838E819F8101969F838E838A8128C0EF
:1017600022FF0FC0E881F9818081992787FD90953C
:10177000009719F420622B831DC03196F983E8830A
:1017800011C0EA85FB85CE01199597FF0BC02B810F
:101790003FEF8F3F930711F480E101C080E2822B7D
:1017A0008B8308C02E813F812F5F3F4F3F832E8365
:1017B00090E002C08FEF9FEFDF91CF9108950F93DC
:1017C0001F93CF93DF938C01EB018B8181FF1BC0B3
:1017D00082FF0DC02E813F818C819D8128173907A2
:1017E00064F4E881F9810193F983E88306C0E88510
:1017F000F985802F1995009731F48E819F8101968C
:101800009F838E8302C00FEF1FEFC801DF91CF913E
:101810001F910F910895FA01AA27283051F1203124
:1018200081F1E8946F936E7F6E5F7F4F8F4F9F4F74
:10183000AF4FB1E03ED0B4E03CD0670F781F891FB6
:101840009A1FA11D680F791F8A1F911DA11D6A0F84
:10185000711D811D911DA11D20D009F468943F9137
:101860002AE0269F11243019305D3193DEF6CF0136
:101870000895462F4770405D4193B3E00FD0C9F7FC
:10188000F6CF462F4F70405D4A3318F0495D31FD69
:101890004052419302D0A9F7EACFB4E0A6959795BC
:1018A000879577956795BA95C9F700976105710592
:1018B00008959B01AC010A2E0694579547953795DC
:1018C0002795BA95C9F7620F731F841F951FA01D36
:0618D0000895F894FFCF1B
:1018D6003E20003E3E002000616464203D202564D9
:1018E6000A006572726F722E2E2E006572726F720A
:1018F600002D2D3E256320002420002564206973D9
:101906002061207072696D65206E756D626572204A
:10191600212121200A00636F756E74203D20256405
:101926000A002D2D3E25642825642920006C6F674A
:101936006F75742C20676F6F642062796520212192
:10194600210020090A0D002420007072696D6500CF
:1019560074696D6572002121212D32323200002119
:1019660021212D33333300556E6B6E6F776E2063F6
:101976006F6D6D616E642E2E2E000000000001005A
:101986000000000000F80500000000000200000052
:1019960000050600000000010000000D0420000004
:00000001FF
