:100000000C9472000C9494000C9494000C94940042
:100010000C9494000C9494000C9494000C94940010
:100020000C9494000C9494000C9494000C94940000
:100030000C9494000C9494000C9494000C949400F0
:100040000C9494000C9494000C9494000C949400E0
:100050000C9494000C9494000C9494000C949400D0
:100060000C9494000C9494000C9494000C949400C0
:100070000C9494000C9494000C9494000C949400B0
:100080000C9494000C9494000C9494000C949400A0
:100090000C9494000C9494000C9494000C94940090
:1000A0000C9494000C9494000C9494000C94940080
:1000B0000C9494000C9494000C9494000C94940070
:1000C0000C9494000C9494000C9494000C94940060
:1000D0000C9494000C9494000C9494000C94940050
:1000E0000C94940011241FBECFEFD1E2DEBFCDBF30
:1000F00000E00CBF12E0A0E0B2E0EEE2F3E000E0CE
:100100000BBF02C007900D92A030B107D9F71BBEFC
:1001100012E0A0E0B2E001C01D92A130B107E1F70A
:100120000E94CE000C9495010C9400008FEF8093F8
:100130000B0180930A0180930002089510920B0135
:100140001092000208958FEF80930B0180930002BC
:10015000089521E030E002C0220F331F8A95E2F7B4
:1001600020958091000228232093000220930B0108
:10017000089521E030E002C0220F331F8A95E2F794
:1001800080910002822B8093000280930B010895DE
:1001900080958093000280930B0108950E94960041
:1001A0007FE76FEB5FED4FEE37EF2BEFFDEFCEEF1D
:1001B000EFEF70930B018FEF9FE5A3E0815090402C
:1001C000A040E1F700C0000060930B018FEF9FE5B6
:1001D000A3E081509040A040E1F700C000005093A0
:1001E0000B018FEF9FE5A3E081509040A040E1F725
:1001F00000C0000040930B018FEF9FE5A3E081500A
:100200009040A040E1F700C0000030930B018FEF59
:100210009FE5A3E081509040A040E1F700C00000BE
:1002200020930B018FEF9FE5A3E081509040A04009
:10023000E1F700C00000F0930B018FEF9FE5A3E012
:1002400081509040A040E1F700C00000C0930B0136
:100250008FEF9FE5A3E081509040A040E1F700C000
:100260000000E0930B018FEF9FE5A3E081509040E9
:10027000A040E1F700C00000C0930B018FEF9FE5A5
:10028000A3E081509040A040E1F700C00000F0934F
:100290000B018FEF9FE5A3E081509040A040E1F774
:1002A00000C0000020930B018FEF9FE5A3E0815079
:1002B0009040A040E1F700C0000030930B018FEFA9
:1002C0009FE5A3E081509040A040E1F700C000000E
:1002D00040930B018FEF9FE5A3E081509040A04039
:1002E000E1F700C0000050930B018FEF9FE5A3E002
:1002F00081509040A040E1F700C0000060930B01E6
:100300008FEF9FE5A3E081509040A040E1F700C04F
:10031000000070930B018FEF9FE5A3E081509040A8
:0E032000A040E1F700C0000044CFF894FFCFEA
:00000001FF
