:100000000C9472000C9494000C9494000C94940042
:100010000C9494000C9494000C9494000C94940010
:100020000C9494000C9494000C9494000C94940000
:100030000C9494000C9494000C9494000C949400F0
:100040000C9494000C9494000C9494000C949400E0
:100050000C9494000C9494000C9494000C949400D0
:100060000C9494000C942C020C9494000C94FD01BC
:100070000C9494000C9494000C9494000C949400B0
:100080000C9494000C9494000C9494000C949400A0
:100090000C9494000C9494000C9494000C94940090
:1000A0000C9494000C9494000C9494000C94940080
:1000B0000C9494000C9494000C9494000C94940070
:1000C0000C9494000C9494000C9494000C94940060
:1000D0000C9494000C9494000C9494000C94940050
:1000E0000C94940011241FBECFEFD1E2DEBFCDBF30
:1000F00000E00CBF12E0A0E0B2E0E8E0F2E100E0D6
:100100000BBF02C007900D92A039B107D9F71BBEF3
:1001100013E0A0E9B2E001C01D92A732B107E1F7F8
:100120000E9497030C9402090C940000CF93DF9374
:10013000FC0162E070E00E94EF03EB0122E030E09E
:1001400008C0CF01B9010E94EF03009741F02F5F73
:100150003F4FC217D307ACF781E090E002C080E0C8
:1001600090E0DF91CF910895CF92DF92EF92FF92CE
:100170000F931F93CF93DF93009721F00E944505C3
:100180007C0104C090EDE92E97E0F92E00E010E02C
:10019000C2E0D0E08CE3C82E82E0D82E16C0CE019B
:1001A0000E949600009781F00F5F1F4F00D00F92C2
:1001B000EDB7FEB7D282C182D483C3830E94D40537
:1001C0000F900F900F900F902196EC16FD063CF7C4
:1001D00000D00F9287E592E0EDB7FEB7928381835E
:1001E000148303830E94D4050F900F900F900F90FB
:1001F000DF91CF911F910F91FF90EF90DF90CF9003
:1002000008951092D9021092D8021092D70210923B
:10021000D6021092DB021092DA021092950210922E
:1002200094020895482F2091DA023091DB022F5F6B
:100230003F4FC90160E470E00E94EF039C01809190
:100240009402909195022817390759F03093DB02F8
:100250002093DA0224523D4FF901408381E090E07F
:10026000089580E090E00895809194029091950225
:100270002091DA023091DB022817390779F00196D4
:1002800060E470E00E94EF039093950280939402E3
:1002900084529D4FFC01808190E0089580E090E0C1
:1002A0000895482F2091D8023091D9022F5F3F4FF7
:1002B000C90160E470E00E94EF039C018091D602C6
:1002C0009091D7022817390759F03093D90220931B
:1002D000D8022A563D4FF901408381E090E008950D
:1002E00080E090E008958091D6029091D70220910D
:1002F000D8023091D9022817390779F0019660E4C5
:1003000070E00E94EF039093D7028093D6028A5642
:100310009D4FFC01808190E0089580E090E0089579
:10032000F8940E94340178948823D1F3843011F03A
:1003300090E008958FEF9FEF0895CF93C82F8A30F4
:1003400019F48DE00E949D01F89480911C0388238C
:1003500059F4C093C60081E080931C030AC07894CE
:1003600086EF8A95F1F7F8948C2F0E94510100973F
:10037000B1F3789481E090E0CF91089583E692E024
:10038000909322038093210381E792E090932403CA
:10039000809323030E94010110921C031092C50058
:1003A00087E08093C400E0ECF0E08081826080838D
:1003B000E1ECF0E0808188608083808180648083CC
:1003C0008081806180838081806880830895CF935D
:1003D000C82F8A3019F48DE00E94E70180911C0338
:1003E000882331F4C093C60081E080931C0303C0CE
:1003F0008C2F0E945101CF9108951F920F920FB63A
:100400000F920BB60F9211242F933F934F935F934C
:100410006F937F938F939F93AF93BF93EF93FF93CC
:100420000E947301882319F410921C0302C0809368
:10043000C600FF91EF91BF91AF919F918F917F91F6
:100440006F915F914F913F912F910F900BBE0F9045
:100450000FBE0F901F9018951F920F920FB60F921C
:100460000BB60F9211242F933F934F935F936F938B
:100470007F938F939F93AF93BF93CF93EF93FF930C
:10048000C091C600C43031F0CD3009F4CAE08C2FE1
:100490000E94E7018C2F0E941201FF91EF91CF91F2
:1004A000BF91AF919F918F917F916F915F914F918C
:1004B0003F912F910F900BBE0F900FBE0F901F908A
:1004C000189584E090E00E94160408950E94AC0400
:1004D0000895FC018091900290919102009739F467
:1004E000F0939102E0939002138212820895938315
:1004F0008283F0939102E09390020895E09190023C
:10050000F0919102309731F4909391028093900290
:1005100008C0F9012281338121153105D1F7938378
:100520008283FC01138212820895CF93DF93FC0132
:1005300020919002309191022115310531F04081D6
:100540005181D901C0E0D0E00FC090939102809317
:100550009002138212821DC012968D919C91139766
:10056000ED01009739F0DC018D919C911197841772
:10057000950794F3209739F433832283F093910203
:10058000E093900206C08A819B8193838283FB83E0
:10059000EA83DF91CF910895CF93DF93FC012091FF
:1005A0009002309191022115310531F04081518145
:1005B000D901C0E0D0E00FC09093910280939002E7
:1005C000138212821DC012968D919C911397ED019A
:1005D000009739F0DC018D919C9111978417950754
:1005E00094F3209739F48A819B8193838283FB83E0
:1005F000EA8306C033832283F0939102E093900252
:10060000DF91CF9108950F931F93CF93DF938AE0EB
:1006100090E00E94E605C0919002D09191020FE710
:1006200012E013C000D00F92EDB7FEB71283018322
:1006300088819981948383830E94D4050A80DB8119
:10064000C02D0F900F900F900F90209759F78AE0D0
:1006500090E00E94E605DF91CF911F910F910895E0
:1006600009C0FC01228133813093910220939002D2
:100670000E94AC048091900290919102009789F7BA
:100680000895EF92FF921F93CF93DF93CDB7DEB71C
:1006900028970FB6F894DEBF0FBECDBF009719F0B4
:1006A000FC01108101C011E686E8E82E82E0F82EF8
:1006B0000F920F92EDB7FEB7F282E1820E94D4054D
:1006C0000F900F904091210350912203CE0101968B
:1006D00068E070E00E94A0050097C9F00E946102E6
:1006E0002981FC0120831182183629F0143731F05A
:1006F000143651F406C00E946902DACF0E947E02CD
:10070000D7CF0E94CC02D4CF0E949502D1CF0E94B5
:1007100003030E94300328960FB6F894DEBF0FBE85
:10072000CDBFDF91CF911F91FF90EF900895CF93B0
:10073000DF93CDB7DEB7C058D0400FB6F894DEBF18
:100740000FBECDBF0E94BE01789480E0C82E82E02B
:10075000D82E0F920F92EDB7FEB7D282C1820E94BF
:10076000D4050F900F904091210350912203CE01A8
:10077000019660E870E00E94A005009759F1CE0153
:10078000019663E072E00E9463058C01009709F313
:1007900080E090E063E072E00E9463057C01C801A4
:1007A00069E072E00E946805009721F4C7010E9489
:1007B000B400CFCFC8016FE072E00E9468050097D7
:1007C00021F4C7010E944103C4CF84E192E00E945A
:1007D000ED05BFCF87E292E00E94ED05FFCF97FBCA
:1007E000092E07260AD077FD04D00CD006D00020B1
:1007F0001AF4709561957F4F0895F6F7909581955D
:100800009F4F0895AA1BBB1B51E107C0AA1FBB1F26
:10081000A617B70710F0A61BB70B881F991F5A958C
:10082000A9F780959095BC01CD010895CF93DF93F2
:10083000AC018230910510F442E050E0E0911F03DA
:10084000F091200320E030E0A0E0B0E024C08081FF
:10085000918184179507D0F08417950771F48281F0
:100860009381109729F013969C938E9312972CC026
:100870009093200380931F0327C02115310519F0A1
:100880008217930718F49C01BD01EF0192818381C7
:10089000DF01E92FF82F3097D1F621153105F9F056
:1008A000C901841B950B8430910580F48A819B815A
:1008B0006115710521F0FB019383828304C090933D
:1008C000200380931F03FE01329642C0FE01E80F11
:1008D000F91F4193519302979983888339C080917E
:1008E0001D0390911E03009741F480918B0290911B
:1008F0008C0290931E0380931D03209189023091F6
:100900008A022115310541F42DB73EB780918D0241
:1009100090918E02281B390BE0911D03F0911E036C
:10092000E217F30798F42E1B3F0B2417350770F0DE
:10093000CA0102962817390748F08E0F9F1F90931F
:100940001E0380931D034193519302C0E0E0F0E049
:10095000CF01DF91CF9108950F931F93CF93DF9332
:100960009C01009709F48CC0DC01129713961C922D
:100970001E92129760911F037091200361157105FB
:1009800089F48D919C911197820F931F20911D03E3
:1009900030911E032817390769F5B0931E03A09301
:1009A0001D036EC0FB0140E050E001C0FC01EA17EE
:1009B000FB0730F482819381AF010097B9F71FC024
:1009C000E9012297FB83EA8308811981C901800F1D
:1009D000911F8E179F0759F480819181800F911F7D
:1009E000029699838883828193819B838A834115B0
:1009F000510529F4B0932003A0931F0341C0FA01CD
:100A0000B383A283C191D191EC0FFD1FAE17BF0735
:100A100081F4F901929182918C0F9D1F0296DA0167
:100A200011969C938E938281938113969C938E93BF
:100A30001297E0E0F0E002C0FB01BC01DB0112967E
:100A40008D919C9113970097B9F7CB0102962D9148
:100A50003C911197820F931F20911D0330911E032B
:100A60002817390769F4309729F41092200310925F
:100A70001F0302C01382128270931E0360931D0332
:100A8000DF91CF911F910F910895FC01882799273D
:100A9000E89421912032E9F3293010F02E30C8F388
:100AA0002B3241F02D3239F4689404C00E9498052D
:100AB000820F911D219120532A30C0F31EF490958E
:100AC00081959F4F089542E952E00E947105089573
:100AD000FB01DC018D91019080190110D9F3990B74
:100AE0000895FA01A191B081009719F41097E1F0EF
:100AF000CD01DC01CD010D90002011F4C00113C027
:100B0000FB012191222319F02015D9F7F3CFFB0126
:100B10002191201519F41E92119606C02223C1F7C7
:100B20000D900020A1F7D001FA01A193B0830895A0
:100B30007AE0979F902D879F802D910D1124089525
:100B4000CF92DF92EF92FF920F931F93CF93DF9399
:100B50008C016A01FA01838180FF1AC016161706FC
:100B6000BCF47B01E8010EC0C6010E943808FFEF0B
:100B70008F3F9F0769F089930894E108F1088A3054
:100B8000910521F021E0E216F10471F7188202C00C
:100B900000E010E0C801DF91CF911F910F91FF900D
:100BA000EF90DF90CF900895CF93DF93CDB7DEB76E
:100BB000FE013696619171918091230390912403F7
:100BC000AF010E941B06DF91CF910895609123032E
:100BD000709124030E94780808950F931F93CF9378
:100BE000DF938C01E0912303F0912403838181FF43
:100BF0001AC0C0E0D0E005C01995009711F0CFEF02
:100C0000DFEFF80181918F0160912303709124033C
:100C1000DB011896ED91FC911997882369F78AE01A
:100C20001995009711F0CFEFDFEFCE01DF91CF9153
:100C30001F910F9108952F923F924F925F926F9262
:100C40007F928F929F92AF92BF92CF92DF92EF925C
:100C5000FF920F931F93CF93DF93CDB7DEB72D97FE
:100C60000FB6F894DEBF0FBECDBF3C017D876C8709
:100C70005A01FC0117821682838181FFC8C12E01AF
:100C80000894411C511CF3019381EC85FD8593FD73
:100C9000859193FF8191FD87EC87882309F4B3C187
:100CA000853241F493FD859193FF8191FD87EC8717
:100CB000853229F490E0B3010E947808E4CFFF2444
:100CC000EE2410E01032B0F48B3269F08C3228F44C
:100CD000803251F0833271F40BC08D3239F08033A1
:100CE00049F411602CC01260146029C0186027C03C
:100CF000106125C017FD2EC0282F20532A3098F4EC
:100D000016FF08C08F2D880FF82EFF0CFF0CF80E71
:100D1000F20E15C08E2D880FE82EEE0CEE0CE80EAC
:100D2000E20E10620CC08E3221F416FD6CC110640C
:100D300006C08C3611F4106802C0883659F4EC8570
:100D4000FD8593FD859193FF8191FD87EC87882335
:100D500009F0B8CF982F9554933018F090529330F3
:100D600038F424E030E0A20EB31E3FE339830FC015
:100D7000833631F0833781F0833509F05AC022C0C1
:100D8000F5018081898322E030E0A20EB31E21E0CC
:100D9000C22ED12C420114C092E0292E312C2A0CF3
:100DA0003B1CF5018080918016FF03C06F2D70E021
:100DB00002C06FEF7FEFC4010E942D086C0151014A
:100DC0001F7715C082E0282E312C2A0C3B1CF50120
:100DD0008080918016FF03C06F2D70E002C06FEF1E
:100DE0007FEFC4010E9422086C011068510113FDBD
:100DF0001CC006C080E290E0B3010E947808EA942B
:100E00008E2D90E0C816D906A8F30FC0F40117FD87
:100E1000859117FF81914F0190E0B3010E947808FE
:100E2000E110EA940894C108D108C114D10471F703
:100E3000E7C0843611F0893651F5F50117FF07C078
:100E400080819181A281B38124E030E008C080815B
:100E50009181AA2797FDA095BA2F22E030E0A20E3B
:100E6000B31E012F0F76B7FF08C0B095A0959095DF
:100E700081959F4FAF4FBF4F0068BC01CD01A201CC
:100E80002AE030E00E94A408D82ED4183FC085374D
:100E900021F41F7E2AE030E020C0197F8F36A9F0B0
:100EA000803720F4883509F0AEC00BC0803721F0C0
:100EB000883709F0A8C001C0106114FF09C0146090
:100EC00007C014FF08C0166006C028E030E005C067
:100ED00020E130E002C020E132E0F50117FF07C059
:100EE000608171818281938144E050E006C060811D
:100EF000718180E090E042E050E0A40EB51EA201B6
:100F00000E94A408D82ED418012F0F7706FF09C01D
:100F10000E7FDF1430F404FF06C002FD04C00F7E14
:100F200002C01D2D01C01F2D802F90E004FF0CC0BA
:100F3000FE01ED0DF11D2081203311F4097E09C061
:100F400002FF06C01E5F05C086789070009709F00A
:100F50001F5F802E992403FD12C000FF0DC0FD2CE1
:100F60001E1550F4FE0CF11A1E2D06C080E290E012
:100F7000B3010E9478081F5F1E15C0F304C01E1540
:100F800010F4E11A01C0EE2484FE0FC080E390E06B
:100F9000B3010E94780882FE1FC081FE03C088E56D
:100FA00090E010C088E790E00DC0C4018678907092
:100FB000009791F081FC02C080E201C08BE207FD46
:100FC0008DE290E0B3010E94780806C080E390E0D3
:100FD000B3010E947808FA94DF14C0F3DA94F201A6
:100FE000ED0DF11D808190E0B3010E947808DD20B5
:100FF000A9F706C080E290E0B3010E947808EA9465
:10100000EE20C1F740CEF3018681978102C08FEFB9
:101010009FEF2D960FB6F894DEBF0FBECDBFDF91C8
:10102000CF911F910F91FF90EF90DF90CF90BF90E5
:10103000AF909F908F907F906F905F904F903F9078
:101040002F900895FC010590615070400110D8F771
:10105000809590958E0F9F1F0895FC016150704000
:1010600001900110D8F7809590958E0F9F1F0895DD
:10107000CF93DF93EC012B8120FF35C026FF09C001
:101080002F7B2B838E819F8101969F838E838A8104
:1010900028C022FF0FC0E881F9818081992787FD50
:1010A0009095009719F420622B831DC03196F98327
:1010B000E88311C0EA85FB85CE01199597FF0BC027
:1010C0002B813FEF8F3F930711F480E101C080E255
:1010D000822B8B8308C02E813F812F5F3F4F3F8340
:1010E0002E8390E002C08FEF9FEFDF91CF910895A4
:1010F0000F931F93CF93DF938C01EB018B8181FFC3
:101100001BC082FF0DC02E813F818C819D812817DD
:10111000390764F4E881F9810193F983E88306C013
:10112000E885F985802F1995009731F48E819F818C
:1011300001969F838E8302C00FEF1FEFC801DF91DE
:10114000CF911F910F910895FA01AA27283051F1EC
:10115000203181F1E8946F936E7F6E5F7F4F8F4FE8
:101160009F4FAF4FB1E03ED0B4E03CD0670F781F47
:10117000891F9A1FA11D680F791F8A1F911DA11D2C
:101180006A0F711D811D911DA11D20D009F4689465
:101190003F912AE0269F11243019305D3193DEF60D
:1011A000CF010895462F4770405D4193B3E00FD0C3
:1011B000C9F7F6CF462F4F70405D4A3318F0495DAE
:1011C00031FD4052419302D0A9F7EACFB4E0A69591
:1011D0009795879577956795BA95C9F700976105B3
:1011E000710508959B01AC010A2E06945795479509
:1011F00037952795BA95C9F7620F731F841F951FFE
:08120000A01D0895F894FFCF32
:101208002420000A0D092020007072696D65006CA9
:1012180069737400556E6B6E6F776E20636F6D6DBA
:10122800616E642E2E2E006C6F676F75742C2067AC
:101238006F6F64206279652021212100256420696F
:10124800732061207072696D65206E756D626572BC
:1012580020212121200A00636F756E74203D20250E
:10126800640A000000000100000000000090010076
:101278000000000002000000009D01000000002D99
:101288002D3E256320003E2000000027032000009B
:00000001FF
