:100000000C9472000C9494000C9494000C94940042
:100010000C9494000C9494000C9494000C94940010
:100020000C9494000C9494000C9494000C94940000
:100030000C9494000C9494000C9494000C949400F0
:100040000C9494000C9494000C9494000C949400E0
:100050000C9494000C9494000C9494000C949400D0
:100060000C9494000C94D6030C9494000C94A70365
:100070000C9494000C9494000C9494000C949400B0
:100080000C9494000C9494000C9494000C949400A0
:100090000C9494000C9494000C9494000C94940090
:1000A0000C9494000C9494000C9494000C94940080
:1000B0000C9494000C9494000C9494000C94940070
:1000C0000C9494000C9494000C9494000C94940060
:1000D0000C9494000C9494000C9494000C94940050
:1000E0000C94940011241FBECFEFD1E2DEBFCDBF30
:1000F00000E00CBF12E0A0E0B2E0E4EBF4E100E0CD
:100100000BBF02C007900D92A43CB107D9F71BBEEC
:1001100013E0A4ECB2E001C01D92AD35B107E1F7E8
:100120000E94D6040C94580A0C94000084E090E0DD
:100130000E946C0508950E9402060895FC018091BA
:10014000C4029091C502009739F4F093C502E09380
:10015000C40213821282089593838283F093C502AE
:10016000E093C4020895E091C402F091C502309773
:1001700031F49093C5028093C40208C0F901228132
:10018000338121153105D1F793838283FC011382DA
:1001900012820895CF93DF93FC012091C402309125
:1001A000C5022115310531F040815181D901C0E0EE
:1001B000D0E00FC09093C5028093C40213821282D4
:1001C0001DC012968D919C911397ED01009739F007
:1001D000DC018D919C9111978417950794F32097DA
:1001E00039F433832283F093C502E093C40206C03E
:1001F0008A819B8193838283FB83EA83DF91CF9102
:100200000895CF93DF93FC012091C4023091C50281
:100210002115310531F040815181D901C0E0D0E094
:100220000FC09093C5028093C402138212821DC036
:1002300012968D919C911397ED01009739F0DC0196
:100240008D919C9111978417950794F3209739F419
:100250008A819B8193838283FB83EA8306C03383F5
:100260002283F093C502E093C402DF91CF910895F9
:100270000F931F93CF93DF938AE090E00E943C0797
:10028000C091C402D091C50200E012E013C000D0BA
:100290000F92EDB7FEB71283018388819981948311
:1002A00083830E942A070A80DB81C02D0F900F9064
:1002B0000F900F90209759F78AE090E00E943C073A
:1002C000DF91CF911F910F91089509C0FC01228108
:1002D00033813093C5022093C4020E9402068091AC
:1002E000C4029091C502009789F70895EF92FF929A
:1002F0001F93CF93DF93CDB7DEB728970FB6F8944F
:10030000DEBF0FBECDBF009719F0FC01108101C008
:1003100011E687E0E82E82E0F82E0F920F92EDB7FB
:10032000FEB7F282E1820E942A070F900F9040915F
:10033000570350915803CE01019668E070E00E9487
:10034000F6060097C9F00E9496002981FC012083DF
:100350001182183629F0143731F0143651F406C0E2
:100360000E949E00DACF0E94B300D7CF0E94010105
:10037000D4CF0E94CA00D1CF0E9438010E946501EB
:1003800028960FB6F894DEBF0FBECDBFDF91CF9198
:100390001F91FF90EF9008950F931F93CF93DF93DA
:1003A000CDB7DEB762970FB6F894DEBF0FBECDBFF4
:1003B0000AE012E00F920F92EDB7FEB712830183AD
:1003C0000E942A070F900F904091570350915803B5
:1003D000CE01019668E070E00E94F606009761F099
:1003E000CE0101960E949B06BC01009729F0CE0128
:1003F00009960E941004DECF0E9483040E94C50467
:1004000062960FB6F894DEBF0FBECDBFDF91CF91DD
:100410001F910F910895CF93DF93009749F16DE0FD
:1004200072E00E94B906009701F10E949B06EC0160
:1004300080E090E06DE072E00E94B9060097C1F0A4
:100440000E949B0600D00F922FE032E0EDB7FEB77E
:1004500032832183C80FD91FD483C3830E942A0704
:100460000F900F900F900F9007C082E292E002C0B1
:1004700089E192E00E944307DF91CF910895CF93E5
:10048000DF93FC0162E070E00E944505EB0122E091
:1004900030E008C0CF01B9010E944505009741F046
:1004A0002F5F3F4FC217D307ACF781E090E002C047
:1004B00080E090E0DF91CF910895CF92DF92EF92AC
:1004C000FF920F931F93CF93DF93009721F00E9429
:1004D0009B067C0104C090EDE92E97E0F92E00E028
:1004E00010E0C2E0D0E08FE6C82E82E0D82E16C021
:1004F000CE010E943F02009781F00F5F1F4F00D096
:100500000F92EDB7FEB7D282C182D483C3830E941B
:100510002A070F900F900F900F902196EC16FD0672
:100520003CF700D00F928AE892E0EDB7FEB79283D5
:100530008183148303830E942A070F900F900F90EA
:100540000F90DF91CF911F910F91FF90EF90DF906F
:10055000CF90089510920F0310920E0310920D0386
:1005600010920C0310921103109210031092CB0200
:100570001092CA020895482F209110033091110360
:100580002F5F3F4FC90160E470E00E9445059C0168
:100590008091CA029091CB022817390759F0309305
:1005A0001103209310032E5E3C4FF901408381E03C
:1005B00090E0089580E090E008958091CA029091C3
:1005C000CB0220911003309111032817390779F0DD
:1005D000019660E470E00E9445059093CB02809301
:1005E000CA028E5E9C4FFC01808190E0089580E0FD
:1005F00090E00895482F20910E0330910F032F5F54
:100600003F4FC90160E470E00E9445059C01809164
:100610000C0390910D032817390759F030930F03FD
:1006200020930E0324533D4FF901408381E090E075
:10063000089580E090E0089580910C0390910D035F
:1006400020910E0330910F032817390779F0019696
:1006500060E470E00E94450590930D0380930C03C5
:1006600084539D4FFC01808190E0089580E090E0EC
:100670000895F8940E94DD0278948823D1F38430A1
:1006800011F090E008958FEF9FEF0895CF93C82F5A
:100690008A3019F48DE00E944603F8948091520349
:1006A000882361F4C093C60081E0809352030BC09D
:1006B000789481E28A95F1F70000F8948C2F0E94DB
:1006C000FA020097A9F3789481E090E0CF91089521
:1006D00086E992E0909358038093570384EA92E06E
:1006E00090935A03809359030E94AA0210925203D6
:1006F0001092C50087E08093C400E0ECF0E08081B8
:1007000082608083E1ECF0E080818860808380817A
:100710008064808380818061808380818068808321
:100720000895CF93C82F8A3019F48DE00E94910369
:1007300080915203882331F4C093C60081E08093F6
:10074000520303C08C2F0E94FA02CF9108951F928A
:100750000F920FB60F920BB60F9211242F933F9367
:100760004F935F936F937F938F939F93AF93BF93B9
:10077000EF93FF930E941C03882319F410925203F5
:1007800002C08093C600FF91EF91BF91AF919F91FE
:100790008F917F916F915F914F913F912F910F902A
:1007A0000BBE0F900FBE0F901F9018951F920F92C7
:1007B0000FB60F920BB60F9211242F933F934F93C6
:1007C0005F936F937F938F939F93AF93BF93CF93D9
:1007D000EF93FF93C091C600C43031F0CD3009F4DF
:1007E000CAE08C2F0E9491038C2F0E94BB02FF91C4
:1007F000EF91CF91BF91AF919F918F917F916F9129
:100800005F914F913F912F910F900BBE0F900FBEB4
:100810000F901F9018958EE090E00E946C0508954F
:10082000EF92FF920F931F93CF93DF93F82EE92E51
:100830008B010E940B04EC01DC011296EF2DFE2DC2
:100840008AE001900D928150E1F719830883E091CD
:10085000C602F091C702309729F4D093C702C09323
:10086000C6022FC040E050E020E030E001C0FD01B2
:1008700080819181280F391F2017310734F4A48516
:10088000B585AF01109799F701C0DF0141155105FA
:1008900079F48D919C911197801B910B11969C93EB
:1008A0008E93BD87AC87D093C702C093C60224C085
:1008B000109751F4021B130B19830883FA01D58793
:1008C000C4871D861C8618C08D919C911197B90113
:1008D000681B790B9801261B370B398328838D9170
:1008E0009C911197821B930B11969C938E93FA0106
:1008F000D587C487BD87AC87DF91CF911F910F91BA
:10090000FF90EF900895EF92FF920F931F93CF9374
:10091000DF938AE090E00E943C07C091C602D0912C
:10092000C70200E010E082EBE82E82E0F82E20C043
:1009300088819981080F191F00D000D0EDB7FEB74C
:100940003196ADB7BEB71296FC92EE921197938393
:100950008283158304830E942A070C84DD85C02DC1
:100960008DB79EB706960FB6F8949EBF0FBE8DBF8B
:100970002097F1F68AE090E00E943C07DF91CF914A
:100980001F910F91FF90EF90089509C0FC012485FD
:1009900035853093C7022093C6020E9402068091DB
:1009A000C6029091C702009789F70895CF93DF930D
:1009B000CDB7DEB7C058D0400FB6F894DEBF0FBE3B
:1009C000CDBF0E946803789488E2C82E82E0D82EBA
:1009D0000F920F92EDB7FEB7D282C1820E942A0712
:1009E0000F900F904091570350915803CE010196FC
:1009F00060E870E00E94F606009709F441C0CE015D
:100A000001966BE272E00E94B9068C01009701F337
:100A100080E090E061E372E00E94B9067C01C801C9
:100A200062E372E00E94BE06009721F4C7010E94B3
:100A30005D02CECFC80168E372E00E94BE06009757
:100A400021F4C7010E947601C3CFC8016DE372E0B3
:100A50000E94BE06009721F4C7010E94CC01B8CFC6
:100A6000C80163E472E00E94BE06009721F4C7014A
:100A70000E940B02ADCF87E492E00E944307A8CF0B
:100A80008AE592E00E944307FFCF97FB092E0726D5
:100A90000AD077FD04D00CD006D000201AF470954F
:100AA00061957F4F0895F6F7909581959F4F089532
:100AB000AA1BBB1B51E107C0AA1FBB1FA617B70784
:100AC00010F0A61BB70B881F991F5A95A9F78095A0
:100AD0009095BC01CD010895CF93DF93AC01823096
:100AE000910510F442E050E0E0915503F091560377
:100AF00020E030E0A0E0B0E024C080819181841744
:100B00009507D0F08417950771F48281938110972F
:100B100029F013969C938E9312972CC090935603B2
:100B20008093550327C02115310519F082179307CB
:100B300018F49C01BD01EF0192818381DF01E92F4F
:100B4000F82F3097D1F621153105F9F0C901841B32
:100B5000950B8430910580F48A819B816115710524
:100B600021F0FB019383828304C09093560380930A
:100B70005503FE01329642C0FE01E80FF91F419372
:100B8000519302979983888339C080915303909140
:100B90005403009741F48091BF029091C00290935A
:100BA0005403809353032091BD023091BE0221155E
:100BB000310541F42DB73EB78091C1029091C20238
:100BC000281B390BE0915303F0915403E217F3070C
:100BD00098F42E1B3F0B2417350770F0CA010296BC
:100BE0002817390748F08E0F9F1F90935403809366
:100BF00053034193519302C0E0E0F0E0CF01DF9155
:100C0000CF9108950F931F93CF93DF939C0100978B
:100C100009F48CC0DC01129713961C921E92129755
:100C200060915503709156036115710589F48D919A
:100C30009C911197820F931F20915303309154037D
:100C40002817390769F5B0935403A09353036EC076
:100C5000FB0140E050E001C0FC01EA17FB0730F463
:100C600082819381AF010097B9F71FC0E9012297F4
:100C7000FB83EA8308811981C901800F911F8E17B8
:100C80009F0759F480819181800F911F029699836B
:100C90008883828193819B838A834115510529F43E
:100CA000B0935603A093550341C0FA01B383A283C6
:100CB000C191D191EC0FFD1FAE17BF0781F4F9016F
:100CC000929182918C0F9D1F0296DA0111969C934E
:100CD0008E938281938113969C938E931297E0E07A
:100CE000F0E002C0FB01BC01DB0112968D919C91EA
:100CF00013970097B9F7CB0102962D913C9111976C
:100D0000820F931F20915303309154032817390702
:100D100069F4309729F4109256031092550302C0DB
:100D2000138212827093540360935303DF91CF9127
:100D30001F910F910895FC0188279927E89421912C
:100D40002032E9F3293010F02E30C8F32B3241F075
:100D50002D3239F4689404C00E94EE06820F911D72
:100D6000219120532A30C0F31EF4909581959F4F16
:100D7000089548EC52E00E94C7060895FB01DC018B
:100D80008D91019080190110D9F3990B0895FA0102
:100D9000A191B081009719F41097E1F0CD01DC0129
:100DA000CD010D90002011F4C00113C0FB01219171
:100DB000222319F02015D9F7F3CFFB01219120153B
:100DC00019F41E92119606C02223C1F70D9000203F
:100DD000A1F7D001FA01A193B08308957AE0979F1B
:100DE000902D879F802D910D11240895CF92DF9231
:100DF000EF92FF920F931F93CF93DF938C016A01C1
:100E0000FA01838180FF1AC016161706BCF47B0115
:100E1000E8010EC0C6010E948E09FFEF8F3F9F07B9
:100E200069F089930894E108F1088A30910521F06E
:100E300021E0E216F10471F7188202C000E010E030
:100E4000C801DF91CF911F910F91FF90EF90DF903C
:100E5000CF900895CF93DF93CDB7DEB7FE013696DE
:100E6000619171918091590390915A03AF010E9451
:100E70007107DF91CF9108956091590370915A03E2
:100E80000E94CE0908950F931F93CF93DF938C0197
:100E9000E0915903F0915A03838181FF1AC0C0E0A9
:100EA000D0E005C01995009711F0CFEFDFEFF80102
:100EB00081918F016091590370915A03DB0118965B
:100EC000ED91FC911997882369F78AE019950097AD
:100ED00011F0CFEFDFEFCE01DF91CF911F910F9196
:100EE00008952F923F924F925F926F927F928F92CE
:100EF0009F92AF92BF92CF92DF92EF92FF920F93A9
:100F00001F93CF93DF93CDB7DEB72D970FB6F8942D
:100F1000DEBF0FBECDBF3C017D876C875A01FC014F
:100F200017821682838181FFC8C12E010894411C5B
:100F3000511CF3019381EC85FD8593FD859193FF11
:100F40008191FD87EC87882309F4B3C1853241F490
:100F500093FD859193FF8191FD87EC87853229F47C
:100F600090E0B3010E94CE09E4CFFF24EE2410E00C
:100F70001032B0F48B3269F08C3228F4803251F0A8
:100F8000833271F40BC08D3239F0803349F4116033
:100F90002CC01260146029C0186027C0106125C0E1
:100FA00017FD2EC0282F20532A3098F416FF08C0B2
:100FB0008F2D880FF82EFF0CFF0CF80EF20E15C0C7
:100FC0008E2D880FE82EEE0CEE0CE80EE20E10626D
:100FD0000CC08E3221F416FD6CC1106406C08C3634
:100FE00011F4106802C0883659F4EC85FD8593FD34
:100FF000859193FF8191FD87EC87882309F0B8CF15
:10100000982F9554933018F09052933038F424E090
:1010100030E0A20EB31E3FE339830FC0833631F0B8
:10102000833781F0833509F05AC022C0F5018081F1
:10103000898322E030E0A20EB31E21E0C22ED12C23
:10104000420114C092E0292E312C2A0C3B1CF501E0
:101050008080918016FF03C06F2D70E002C06FEF9B
:101060007FEFC4010E9483096C0151011F7715C0F5
:1010700082E0282E312C2A0C3B1CF50180809180C7
:1010800016FF03C06F2D70E002C06FEF7FEFC40149
:101090000E9478096C011068510113FD1CC006C044
:1010A00080E290E0B3010E94CE09EA948E2D90E098
:1010B000C816D906A8F30FC0F40117FD859117FFD4
:1010C00081914F0190E0B3010E94CE09E110EA94B2
:1010D0000894C108D108C114D10471F7E7C084365F
:1010E00011F0893651F5F50117FF07C08081918114
:1010F000A281B38124E030E008C080819181AA27D9
:1011000097FDA095BA2F22E030E0A20EB31E012F6A
:101110000F76B7FF08C0B095A095909581959F4F29
:10112000AF4FBF4F0068BC01CD01A2012AE030E003
:101130000E94FA09D82ED4183FC0853721F41F7EAB
:101140002AE030E020C0197F8F36A9F0803720F4E4
:10115000883509F0AEC00BC0803721F0883709F020
:10116000A8C001C0106114FF09C0146007C014FFBB
:1011700008C0166006C028E030E005C020E130E07D
:1011800002C020E132E0F50117FF07C060817181E4
:101190008281938144E050E006C06081718180E0EB
:1011A00090E042E050E0A40EB51EA2010E94FA09B0
:1011B000D82ED418012F0F7706FF09C00E7FDF1439
:1011C00030F404FF06C002FD04C00F7E02C01D2DD6
:1011D00001C01F2D802F90E004FF0CC0FE01ED0D1B
:1011E000F11D2081203311F4097E09C002FF06C0E1
:1011F0001E5F05C086789070009709F01F5F802EF3
:10120000992403FD12C000FF0DC0FD2C1E1550F4E3
:10121000FE0CF11A1E2D06C080E290E0B3010E9480
:10122000CE091F5F1E15C0F304C01E1510F4E11A8D
:1012300001C0EE2484FE0FC080E390E0B3010E9461
:10124000CE0982FE1FC081FE03C088E590E010C079
:1012500088E790E00DC0C40186789070009791F007
:1012600081FC02C080E201C08BE207FD8DE290E0CC
:10127000B3010E94CE0906C080E390E0B3010E9452
:10128000CE09FA94DF14C0F3DA94F201ED0DF11DEA
:10129000808190E0B3010E94CE09DD20A9F706C04D
:1012A00080E290E0B3010E94CE09EA94EE20C1F7FB
:1012B00040CEF3018681978102C08FEF9FEF2D967C
:1012C0000FB6F894DEBF0FBECDBFDF91CF911F9157
:1012D0000F91FF90EF90DF90CF90BF90AF909F90D5
:1012E0008F907F906F905F904F903F902F900895D8
:1012F000FC010590615070400110D8F780959095E1
:101300008E0F9F1F0895FC016150704001900110E5
:10131000D8F7809590958E0F9F1F0895CF93DF93F8
:10132000EC012B8120FF35C026FF09C02F7B2B83CA
:101330008E819F8101969F838E838A8128C022FFA0
:101340000FC0E881F9818081992787FD90950097EA
:1013500019F420622B831DC03196F983E88311C0F4
:10136000EA85FB85CE01199597FF0BC02B813FEFD6
:101370008F3F930711F480E101C080E2822B8B83C1
:1013800008C02E813F812F5F3F4F3F832E8390E027
:1013900002C08FEF9FEFDF91CF9108950F931F93BE
:1013A000CF93DF938C01EB018B8181FF1BC082FF08
:1013B0000DC02E813F818C819D812817390764F4EF
:1013C000E881F9810193F983E88306C0E885F9850E
:1013D000802F1995009731F48E819F8101969F830C
:1013E0008E8302C00FEF1FEFC801DF91CF911F91D5
:1013F0000F910895FA01AA27283051F1203181F187
:10140000E8946F936E7F6E5F7F4F8F4F9F4FAF4F0C
:10141000B1E03ED0B4E03CD0670F781F891F9A1F1F
:10142000A11D680F791F8A1F911DA11D6A0F711DD3
:10143000811D911DA11D20D009F468943F912AE0DF
:10144000269F11243019305D3193DEF6CF010895C7
:10145000462F4770405D4193B3E00FD0C9F7F6CFF8
:10146000462F4F70405D4A3318F0495D31FD4052C0
:10147000419302D0A9F7EACFB4E0A6959795879556
:1014800077956795BA95C9F7009761057105089535
:101490009B01AC010A2E06945795479537952795E1
:1014A000BA95C9F7620F731F841F951FA01D089579
:0414B000F894FFCFDE
:1014B4002D2D3E256320003E20003E3E002000618D
:1014C4006464203D2025640A006572726F722E2EBA
:1014D4002E006572726F72002420000A0D0920200C
:1014E40000007072696D65006C6973740074696DD5
:1014F40065720061646400556E6B6E6F776E206375
:101504006F6D6D616E642E2E2E006C6F676F757437
:101514002C20676F6F6420627965202121210025CA
:10152400642069732061207072696D65206E756D29
:1015340062657220212121200A00636F756E742078
:101544003D2025640A0000000001000000000000A6
:101554003903000000000002000000004603000000
:1015640000002D2D3E256428256429200000005DFF
:041574000320000050
:00000001FF
