:100000000C9472000C9494000C9494000C94940042
:100010000C9494000C9494000C9494000C94940010
:100020000C9494000C9494000C9494000C94940000
:100030000C9494000C9494000C9494000C94460539
:100040000C9494000C9494000C9494000C949400E0
:100050000C9494000C9494000C9494000C949400D0
:100060000C9494000C945C070C9494000C942D0751
:100070000C9494000C94DC070C9494000C94940061
:100080000C9494000C9494000C9494000C949400A0
:100090000C9494000C9494000C9494000C94940090
:1000A0000C9494000C9494000C9494000C94940080
:1000B0000C9494000C9494000C9494000C94940070
:1000C0000C9494000C9494000C9494000C94940060
:1000D0000C9494000C9494000C9494000C94940050
:1000E0000C94940011241FBECFEFD1E2DEBFCDBF30
:1000F00000E00CBF14E0A0E0B2E0ECEEF2E200E0C1
:100100000BBF02C007900D92A031B107D9F71BBEFB
:1001100015E0A0E1B4E001C01D92A235B107E1F7FE
:100120000E94990B0C9474110C940000EF92FF92B2
:100130001F93CF93DF93CDB7DEB728970FB6F89410
:10014000DEBF0FBECDBF009719F0FC01108101C0CA
:1001500011E680E0E82E82E0F82E0F920F92EDB7C4
:10016000FEB7F282E1820E94170E0F900F9040912D
:100170004C0550914D05CE01019668E070E00E945B
:10018000BD0D0097C9F00E945C012981FC0120830C
:100190001182183629F0143731F0143651F406C0A4
:1001A0000E946401DACF0E947901D7CF0E94C70173
:1001B000D4CF0E949001D1CF0E94FE010E942B0259
:1001C00028960FB6F894DEBF0FBECDBFDF91CF915A
:1001D0001F91FF90EF9008950F931F93CF93DF939C
:1001E000CDB7DEB762970FB6F894DEBF0FBECDBFB6
:1001F00003E012E00F920F92EDB7FEB71283018376
:100200000E94170E0F900F9040914C0550914D0594
:10021000CE01019668E070E00E94BD0D009761F08C
:10022000CE0101960E945B0DBC01009729F0CE0122
:1002300009960E940504DECF0E9478040E94BA0449
:1002400062960FB6F894DEBF0FBECDBFDF91CF919F
:100250001F910F910895CF93DF93009731F166E0DE
:1002600072E00E94790D009701F10E945B0DEC0194
:1002700080E090E066E072E00E94790D0097A9F0BE
:100280000E945B0D00D00F9228E032E0EDB7FEB780
:1002900032832183C80FD91FD483C3830E94170ED2
:1002A0000F900F900F900F9004C082E192E00E9497
:1002B000300EDF91CF91089584E090E00E942C0CE5
:1002C00008950E94C20C0895FC0180911004909141
:1002D0001104009739F4F0931104E0931004138291
:1002E0001282089593838283F0931104E0931004A3
:1002F0000895E0911004F0911104309731F4909337
:1003000011048093100408C0F90122813381211562
:100310003105D1F793838283FC0113821282089501
:10032000CF93DF93FC01209110043091110421152B
:10033000310531F040815181D901C0E0D0E00FC0DA
:100340009093110480931004138212821DC01296A0
:100350008D919C911397ED01009739F0DC018D91FF
:100360009C9111978417950794F3209739F4338360
:100370002283F0931104E093100406C08A819B81CC
:1003800093838283FB83EA83DF91CF910895CF9398
:10039000DF93FC01209110043091110421153105E7
:1003A00031F040815181D901C0E0D0E00FC090937D
:1003B000110480931004138212821DC012968D9135
:1003C0009C911397ED01009739F0DC018D919C9180
:1003D00011978417950794F3209739F48A819B81AC
:1003E00093838283FB83EA8306C033832283F09363
:1003F0001104E0931004DF91CF9108950F931F93A0
:10040000CF93DF938AE090E00E94290EC091100400
:10041000D09111040BE112E013C000D00F92EDB7A0
:10042000FEB71283018388819981948383830E941C
:10043000170E0A80DB81C02D0F900F900F900F9048
:10044000209759F78AE090E00E94290EDF91CF9122
:100450001F910F91089509C0FC01228133813093CF
:100460001104209310040E94C20C809110049091FA
:100470001104009789F70895CF93DF93FC0162E0A0
:1004800070E00E94CE0BEB0122E030E008C0CF010B
:10049000B9010E94CE0B009741F02F5F3F4FC2176A
:1004A000D307ACF781E090E002C080E090E0DF91FC
:1004B000CF910895CF92DF92EF92FF920F931F9307
:1004C000CF93DF93009721F00E945B0D7C0104C065
:1004D0009CE2E92E91E0F92E00E010E0C2E0D0E0CD
:1004E00085E2C82E82E0D82E16C0CE010E943C02C2
:1004F000009781F00F5F1F4F00D00F92EDB7FEB74E
:10050000D282C182D483C3830E94170E0F900F90B2
:100510000F900F902196EC16FD063CF700D00F923D
:1005200080E492E0EDB7FEB7928381831483038366
:100530000E94170E0F900F900F900F90DF91CF91A8
:100540001F910F91FF90EF90DF90CF900895CF9281
:10055000DF92EF92FF920F931F93CF93DF93009759
:1005600041F0FC012081222321F00E945B0D8C01CF
:1005700002C00CE211E0EE24FF24C2E0D0E025E24C
:10058000C22E22E0D22E17C0CE010E943C0200975C
:1005900089F00894E11CF11C00D00F92EDB7FEB772
:1005A000D282C182D483C3830E94170E0F900F9012
:1005B0000F900F9021960C171D0734F700D00F9263
:1005C00080E492E0EDB7FEB792838183F482E38208
:1005D0000E94170E0F900F900F900F90DF91CF9108
:1005E0001F910F91FF90EF90DF90CF9008958FEFC4
:1005F00080930B0180930A01089510920B011092D1
:10060000120408958FEF80930B01809312040895D4
:100610001092600410925F0410925E0410925D04C8
:10062000109262041092610410921C0410921B0438
:100630000895482F20916104309162042F5F3F4F4D
:10064000C90160E470E00E94CE0B9C0180911B0404
:1006500090911C042817390759F0309362042093B5
:1006600061042D593B4FF901408381E090E00895EA
:1006700080E090E0089580911B0490911C042091EB
:100680006104309162042817390779F0019660E41B
:1006900070E00E94CE0B90931C0480931B048D5934
:1006A0009B4FFC01808190E0089580E090E00895E8
:1006B000482F20915F04309160042F5F3F4FC901A4
:1006C00060E470E00E94CE0B9C0180915D049091EB
:1006D0005E042817390759F03093600420935F04B3
:1006E000235E3B4FF901408381E090E0089580E074
:1006F00090E0089580915D0490915E0420915F04E4
:10070000309160042817390779F0019660E470E0B1
:100710000E94CE0B90935E0480935D04835E9B4F9A
:10072000FC01808190E0089580E090E00895809140
:100730001B0490911C042091610430916204821783
:10074000930759F0019660E470E00E94CE0B8D593A
:100750009B4FFC01808190E0089580E090E0089537
:10076000FC012081222319F50E94CC0781E090E052
:1007700090931604809315048091150490911604AB
:100780000097D1F700D00F928CE492E0EDB7FEB75E
:1007900092838183809117049091180494838383BA
:1007A0000E94170E0F900F900F900F9008950E94C7
:1007B0005B0D9C01B901882777FD8095982F0E94D9
:1007C0003E0929E030EF4CE85AE30E943D0820E062
:1007D00030E04AE754E40E943D080E94B509DC017C
:1007E000CB01845F91406AE070E00E94CE0B709371
:1007F00018046093170410921604109215040895BB
:100800008EE090E00E942C0C0895EF92FF920F93DF
:100810001F93CF93DF93F82EE92E8B010E940004E3
:10082000EC01DC011296EF2DFE2D8AE001900D9275
:100830008150E1F719830883E0911304F0911404C7
:10084000309729F4D0931404C09313042FC040E0D0
:1008500050E020E030E001C0FD0180819181280F4F
:10086000391F2017310734F4A485B585AF011097DF
:1008700099F701C0DF014115510579F48D919C91E3
:100880001197801B910B11969C938E93BD87AC871B
:10089000D0931404C093130424C0109751F4021B86
:1008A000130B19830883FA01D587C4871D861C861C
:1008B00018C08D919C911197B901681B790B980113
:1008C000261B370B398328838D919C911197821BAE
:1008D000930B11969C938E93FA01D587C487BD879D
:1008E000AC87DF91CF911F910F91FF90EF9008950A
:1008F000EF92FF920F931F93CF93DF938AE090E0E4
:100900000E94290EC0911304D091140400E010E05D
:100910008FE6E82E82E0F82E20C088819981080FAA
:10092000191F00D000D0EDB7FEB73196ADB7BEB7F6
:100930001296FC92EE92119793838283158304831F
:100940000E94170E0C84DD85C02D8DB79EB70696CC
:100950000FB6F8949EBF0FBE8DBF2097F1F68AE0C8
:1009600090E00E94290EDF91CF911F910F91FF908F
:10097000EF90089509C0FC01248535853093140457
:10098000209313040E94C20C8091130490911404CC
:10099000009789F708951092B200E6EBF0E08081AD
:1009A00080628083E0E7F0E0808181608083E1EB1A
:1009B000F0E08081816080838081826080830895FF
:1009C0001092A4041092A3041092460510924505BB
:1009D0000895CF93DF93482FE92F8091A30490913E
:1009E000A404C0914505D0914605019620E130E070
:1009F000B9010E94CE0B8C179D0731F18091A304A1
:100A00009091A4040196B9010E94CE0B9093A40486
:100A10008093A3048091A3049091A404DC01AA0F05
:100A2000BB1F63E0880F991F6A95E1F7A80FB91FF4
:100A3000AB55BB4FC42FDE2F8AE009900D92815039
:100A4000E1F781E090E002C080E090E0DF91CF919B
:100A50000895CF93DF930DC08C859D8590931404EA
:100A600080931304CE0102960E94E904CE010E94F5
:100A7000C20CC0911304D0911404209721F08881F6
:100A80009981009749F3DF91CF9108951F920F92BA
:100A90000FB60F920BB60F9211242F933F934F93E3
:100AA0005F936F937F938F939F93AF93BF93EF93D6
:100AB000FF93E0911304F0911404309749F0808182
:100AC0009181019791838083009711F40E942905F9
:100AD000FF91EF91BF91AF919F918F917F916F9116
:100AE0005F914F913F912F910F900BBE0F900FBED2
:100AF0000F901F9018959C014091A3045091A4045D
:100B000080914505909146054817590731F180912C
:100B1000450590914605019660E170E00E94CE0B7C
:100B20009093460580934505809145059091460533
:100B3000FC01EE0FFF1FA3E0880F991FAA95E1F7B4
:100B4000E80FF91FD901EB55FB4F8AE001900D9298
:100B50008150E1F781E090E0089580E090E0089511
:100B6000AF92BF92CF92DF92EF92FF920F931F93BB
:100B7000CF93DF93CDB7DEB7CA54D0400FB6F89409
:100B8000DEBF0FBECDBF0E94C407009709F4E6C0C8
:100B9000CE010B960E94F10D009729F48AE792E0AE
:100BA0000E94300EFFCFCE010B966FE872E00E94DC
:100BB000790D8C0180E090E06FE872E00E94790D81
:100BC0007C0180E090E06FE872E00E94790D5C01AA
:100BD00080E090E06FE872E00E94790D6C010115F1
:100BE000110509F4AFC0C80167E972E00E947E0DEB
:100BF000009721F4C7010E94A702A4C0C8016DE9B3
:100C000072E00E947E0D009711F500E010E0B3EA5B
:100C1000EB2EB2E0FB2E00D00F92EDB7FEB7F282C2
:100C2000E182148303830E94170EF8940F900F90B3
:100C30000F900F90CE01019667E070E00E940504CE
:100C400078940F5F1F4F0A30110529F77BC0C80148
:100C500067EA72E00E947E0D009719F40E94FD027F
:100C600071C0C8016AEA72E00E947E0D009719F413
:100C70000E94020367C0C8016EEA72E00E947E0D06
:100C8000009709F04FC0E114F10419F484EB92E0ED
:100C900057C0C7010E945B0D60E071E00E94CE0B5F
:100CA000062FE72EC50167E972E00E947E0D0097CE
:100CB000C1F487EA92E09A838983CE010396C11436
:100CC000D10411F0B60102C06CEB72E00E94870DF6
:100CD000F894CE010196602F7E2D0E940504789431
:100CE00031C0C5016DEB72E00E947E0D0097B9F432
:100CF00080EB93E09A838983CE010396C114D104DB
:100D000011F0B60102C06CEB72E00E94870DF894FE
:100D1000CE010196602F7E2D0E94050413C084EC45
:100D200092E00EC0C8016DEB72E00E947E0D00974C
:100D300029F48CEB92E00E94B00304C08CEC92E0AA
:100D40000E94300E0F920F9284E992E0EDB7FEB749
:100D5000928381830E94170E0F900F90C65BDF4F26
:100D60000FB6F894DEBF0FBECDBFDF91CF911F91BC
:100D70000F91FF90EF90DF90CF90BF90AF900895CC
:100D8000F8940E943B0378948823D1F3843011F0C7
:100D900090E008958FEF9FEF0895CF93C82F8A308A
:100DA00019F48DE00E94CD06F894809147058823C0
:100DB00059F4C093C60081E0809347050AC0789437
:100DC00086EF8A95F1F7F8948C2F0E9458030097CC
:100DD000B1F3789481E090E0CF91089580EE92E0B5
:100DE00090934D0580934C058EEE92E090934F05C5
:100DF00080934E050E940803109247051092C5008B
:100E000087E08093C400E0ECF0E080818260808322
:100E1000E1ECF0E080818860808380818064808361
:100E20008081806180838081806880830895CF93F2
:100E3000C82F8A3019F48DE00E941707809147056A
:100E4000882331F4C093C60081E08093470503C036
:100E50008C2F0E945803CF9108951F920F920FB6C6
:100E60000F920BB60F9211242F933F934F935F93E2
:100E70006F937F938F939F93AF93BF93EF93FF9362
:100E80000E947A03882319F41092470502C08093C8
:100E9000C600FF91EF91BF91AF919F918F917F918C
:100EA0006F915F914F913F912F910F900BBE0F90DB
:100EB0000FBE0F901F9018951F920F920FB60F92B2
:100EC0000BB60F9211241F932F933F934F935F9371
:100ED0006F937F938F939F93AF93BF93EF93FF9302
:100EE000CF93DF93CDB7DEB72A97DEBFCDBF10918A
:100EF000C6001B3161F48091FC029091FD020196C5
:100F0000817090709093FD028093FC0224C0143095
:100F100069F01D3009F41AE02091FC023091FD02C5
:100F20002115310519F0812F0E941707812F0E948A
:100F30001903143011F01A3071F480EB95E09A83A4
:100F40008983CE0103966FED72E00E94870DCE017A
:100F500001960E94E9042A96DEBFCDBFDF91CF91B2
:100F6000FF91EF91BF91AF919F918F917F916F9181
:100F70005F914F913F912F911F910F900BBE0F905A
:100F80000FBE0F901F9018950E94970308958098A8
:100F900080E880937C000895EAE7F0E08081806833
:100FA00080838DED90E00197F1F7808188608083E8
:100FB00080818064808308951F920F920FB60F92F4
:100FC0000BB60F9211240F931F932F933F934F93C0
:100FD0005F936F937F938F939F93AF93BF93EF93A1
:100FE000FF93CF93DF93CDB7DEB72897DEBFCDBF9A
:100FF0008091780090917900EAE7F0E020812F77E6
:10100000208300D000D0EDB7FEB731968E010F5F80
:101010001F4FADB7BEB712961C930E9311972EEFCC
:1010200032E0338322839370958384830E945E0E23
:101030008DB79EB706960FB6F8949EBF0FBE8DBFB4
:10104000C8010E94B0032896DEBFCDBFDF91CF91CB
:10105000FF91EF91BF91AF919F918F917F916F9190
:101060005F914F913F912F911F910F910F900BBE68
:101070000F900FBE0F901F901895A0E2B0E0E3E430
:10108000F8E00C94F70BDC01CB018D839E83AF83DA
:10109000B88729833A834B835C83CE010596BE01D2
:1010A000675E7F4F0E94300BCE010196BE016F5EDE
:1010B0007F4F0E94300B998D923078F08989823071
:1010C000C0F0943019F4823041F4CAC0843019F46D
:1010D000923079F4C5C0923051F481E02A8D9A891A
:1010E000291709F480E08A8FCE014996BBC082306F
:1010F00051F481E02A8D9A89291709F480E08A8BBE
:10110000CE014196AFC04D8C5E8C6F8C78A00D895E
:101110001E892F89388DE0E2F0E040E050E0BA010E
:10112000882499245401CC24DD247601C2018170E5
:1011300090700097D1F0C00ED11EE21EF31EDB01AD
:10114000CA01880D991DAA1DBB1D41E050E060E059
:1011500070E0C016D106E206F30618F040E050E059
:10116000BA01480F591F6A1F7B1F880C991CAA1CC3
:10117000BB1C37FF08C081E090E0A0E0B0E0882A07
:10118000992AAA2ABB2A000F111F221F331F769407
:10119000679457944794319749F68B8D9C8D2B8992
:1011A0003C89820F931F02969C878B8781E02A8D52
:1011B0009A89291709F480E08A872B853C8517C016
:1011C000CA0181709070009761F0F694E794D7940B
:1011D000C79480E090E0A0E0B0E8C82AD92AEA2AC3
:1011E000FB2A76956795579547952F5F3F4F77FD7B
:1011F000E7CFC9010BC0440F551F661F771FF7FCCF
:101200004160CC0CDD1CEE1CFF1C01974030A0E0BF
:101210005A07A0E06A07A0E47A0768F38B879C87E7
:10122000DB01CA018F779070A070B0708034910597
:10123000A105B10561F447FD0AC0C114D104E10460
:10124000F10429F0405C5F4F6F4F7F4F40784D872E
:101250005E876F87788B83E08987CE01099602C00D
:1012600081E093E00E94590A462F572F682F792F6B
:10127000CB01BA01A096E0E10C94130CCF92DF925F
:10128000EF92FF92CF93DF93CDB7DEB728970FB6DB
:10129000F894DEBF0FBECDBF6B017C0183E0898374
:1012A000D701C6018827B7FD83959927AA27BB27B1
:1012B000282F8A83C114D104E104F10419F482E0D7
:1012C000898335C08EE190E09C838B83222389F053
:1012D00080E0C81680E0D80680E0E80680E8F806DE
:1012E00059F1F094E094D094C094C11CD11CE11C3D
:1012F000F11CCD82DE82EF82F886C701B6010E9422
:10130000060A01971816190694F4082E04C0CC0C8E
:10131000DD1CEE1CFF1C0A94D2F7CD82DE82EF8228
:10132000F8862EE130E0281B390B3C832B83CE015D
:1013300001960E94590A04C060E070E080E09FECD2
:10134000382F292F862F972FA32FB22FBC01CD0125
:1013500028960FB6F894DEBF0FBECDBFDF91CF91B8
:10136000FF90EF90DF90CF900895ACE0B0E0EBEB12
:10137000F9E00C94030CDC01CB0189839A83AB83E5
:10138000BC83CE010196BE016B5F7F4F0E94300B84
:101390008D81823069F1823058F1843039F02F81AB
:1013A000388537FD25C02F31310544F08E818823E3
:1013B00019F100E010E020E030E822C08EE190E07A
:1013C000821B930B09851A852B853C8504C03695B5
:1013D0002795179507958A95D2F78E81882381F0F6
:1013E00030952095109501951F4F2F4F3F4F08C006
:1013F00000E010E0980104C00FEF1FEF2FEF3FE770
:10140000B801C9012C96E4E00C941F0CCF92DF9236
:10141000EF92FF920F931F938B019C01003080E0AD
:10142000180781E0280780E0380750F40F3F1105C6
:101430002105310509F088F480E090E0DC0116C058
:101440000030E0E01E07E0E02E07E1E03E0750F448
:1014500080E190E0A0E0B0E009C088E090E0A0E08A
:10146000B0E004C088E190E0A0E0B0E040E250E0ED
:1014700060E070E0481B590B6A0B7B0B6801790137
:1014800004C0F694E794D794C7948A95D2F7D7010D
:10149000C601875F9C4FFC018081481B510961098F
:1014A0007109CA011F910F91FF90EF90DF90CF90CB
:1014B0000895CF92DF92EF92FF920F931F93DC017A
:1014C00014964D915D916D917C9117971196EC91C9
:1014D00011978C91823020F460618FEF90E0A5C06D
:1014E000843009F49DC0823009F494C0411551053F
:1014F0006105710509F491C012968D919C91139725
:101500002FEF823892070CF059C022E83FEF281BDA
:10151000390B2A31310564F56A017B01022E04C0C2
:10152000F694E794D794C7940A94D2F781E090E0B8
:10153000A0E0B0E004C0880F991FAA1FBB1F2A9526
:10154000D2F70197A109B10984239523A623B723D4
:1015500041E050E060E070E00097A105B10519F4AA
:1015600040E050E0BA014C295D296E297F2903C073
:1015700040E050E0BA01DB01CA018F779070A070A3
:10158000B07080349105A105B10539F447FF09C059
:10159000405C5F4F6F4F7F4F04C0415C5F4F6F4FA8
:1015A0007F4F81E090E0403020E0520720E062076A
:1015B00020E4720738F580E090E024C0803891057F
:1015C0007CF58A019B010F77107020703070003419
:1015D00011052105310539F447FF09C0405C5F4F13
:1015E0006F4F7F4F04C0415C5F4F6F4F7F4F77FD60
:1015F00003C081589F4F06C07695679557954795CC
:1016000080589F4F97E076956795579547959A959F
:10161000D1F70BC080E090E005C080E090E005C00D
:101620008FEF90E040E050E0BA01982F979599270E
:101630009795A62FAF77E795EE27E79586953A2FF2
:10164000392B282F2E2B842F952FA32FB22FBC019F
:10165000CD011F910F91FF90EF90DF90CF900895F3
:10166000DC01FB014C9111965C91119712968C91C3
:101670001297682F6F7770E0982F991F9927991FFD
:1016800013962C911397822F880F892B90E0221F9D
:101690002227221F2183009739F541155105610545
:1016A000710511F482E029C082E89FEF9383828361
:1016B00027E0440F551F661F771F2A95D1F783E057
:1016C000808309C0440F551F661F771F8281938155
:1016D000019793838283403080E0580780E0680759
:1016E00080E4780778F320C08F3F910579F44115A5
:1016F00051056105710519F484E08083089564FF44
:1017000003C081E0808310C010820EC08F579040CC
:101710009383828383E0808387E0440F551F661F95
:10172000771F8A95D1F770644483558366837783E6
:101730000895CF93DF93CDB7DEB72A970FB6F8940D
:10174000DEBF0FBECDBF0E94EE060E94E0040E94E5
:10175000CB040E94C7070E94F7020F920F9282E209
:1017600092E0EDB7FEB7928381830E94170E0F902F
:101770000F9000E010E0F894CE0101960E947B05E6
:101780007894009729F0E981FA81CE0103961995A2
:101790000F5F1F4F0330110564F7EDCF97FB092E44
:1017A00007260AD077FD04D00CD006D000201AF40A
:1017B000709561957F4F0895F6F7909581959F4FAD
:1017C0000895AA1BBB1B51E107C0AA1FBB1FA61788
:1017D000B70710F0A61BB70B881F991F5A95A9F7DA
:1017E00080959095BC01CD0108952F923F924F9224
:1017F0005F926F927F928F929F92AF92BF92CF92A1
:10180000DF92EF92FF920F931F93CF93DF93CDB7A9
:10181000DEB7CA1BDB0B0FB6F894DEBF0FBECDBF21
:1018200019942A88398848885F846E847D848C84E2
:101830009B84AA84B984C884DF80EE80FD800C81FB
:101840001B81AA81B981CE0FD11D0FB6F894DEBFDE
:101850000FBECDBFED010895CF93DF93AC01823071
:10186000910510F442E050E0E0914A05F0914B05FB
:1018700020E030E0A0E0B0E024C0808191818417B6
:101880009507D0F08417950771F4828193811097A2
:1018900029F013969C938E9312972CC090934B052E
:1018A00080934A0527C02115310519F08217930747
:1018B00018F49C01BD01EF0192818381DF01E92FC2
:1018C000F82F3097D1F621153105F9F0C901841BA5
:1018D000950B8430910580F48A819B816115710597
:1018E00021F0FB019383828304C090934B05809386
:1018F0004A05FE01329642C0FE01E80FF91F4193EE
:10190000519302979983888339C0809148059091BB
:101910004905009741F480910B0490910C04909339
:101920004905809348052091090430910A04211546
:10193000310541F42DB73EB780910D0490910E040E
:10194000281B390BE0914805F0914905E217F30790
:1019500098F42E1B3F0B2417350770F0CA0102962E
:101960002817390748F08E0F9F1F909349058093E1
:1019700048054193519302C0E0E0F0E0CF01DF91D0
:10198000CF9108950F931F93CF93DF939C010097FE
:1019900009F48CC0DC01129713961C921E921297C8
:1019A00060914A0570914B056115710589F48D911F
:1019B0009C911197820F931F209148053091490502
:1019C0002817390769F5B0934905A09348056EC0FB
:1019D000FB0140E050E001C0FC01EA17FB0730F4D6
:1019E00082819381AF010097B9F71FC0E901229767
:1019F000FB83EA8308811981C901800F911F8E172B
:101A00009F0759F480819181800F911F02969983DD
:101A10008883828193819B838A834115510529F4B0
:101A2000B0934B05A0934A0541C0FA01B383A2834A
:101A3000C191D191EC0FFD1FAE17BF0781F4F901E1
:101A4000929182918C0F9D1F0296DA0111969C93C0
:101A50008E938281938113969C938E931297E0E0EC
:101A6000F0E002C0FB01BC01DB0112968D919C915C
:101A700013970097B9F7CB0102962D913C911197DE
:101A8000820F931F20914805309149052817390787
:101A900069F4309729F410924B0510924A0502C060
:101AA000138212827093490560934805DF91CF91AC
:101AB0001F910F910895FC0188279927E89421919F
:101AC0002032E9F3293010F02E30C8F32B3241F0E8
:101AD0002D3239F4689404C00E94B50D820F911D17
:101AE000219120532A30C0F31EF4909581959F4F89
:101AF000089549E154E00E948E0D0895FB01DC0138
:101B00008D91019080190110D9F3990B0895FB0173
:101B1000DC0101900D920020E1F70895FA01A191F6
:101B2000B081009719F41097E1F0CD01DC01CD01EF
:101B30000D90002011F4C00113C0FB01219122235C
:101B400019F02015D9F7F3CFFB012191201519F4D5
:101B50001E92119606C02223C1F70D900020A1F716
:101B6000D001FA01A193B08308957AE0979F902D58
:101B7000879F802D910D11240895CF92DF92EF92CF
:101B8000FF920F931F93CF93DF938C016A01FA01A9
:101B9000838180FF1AC016161706BCF47B01E8018A
:101BA0000EC0C6010E94AA10FFEF8F3F9F0769F089
:101BB00089930894E108F1088A30910521F021E029
:101BC000E216F10471F7188202C000E010E0C801CB
:101BD000DF91CF911F910F91FF90EF90DF90CF9009
:101BE00008950F931F93CF93DF938C01E0914C05E1
:101BF000F0914D05838180FF12C0E80180914C0572
:101C000090914D050E94AA102FEF8F3F920739F057
:101C100089938A30910591F72197188202C000E0DC
:101C200010E0C801DF91CF911F910F910895CF93DC
:101C3000DF93CDB7DEB7FE01369661917191809149
:101C40004E0590914F05AF010E948D0EDF91CF910F
:101C5000089560914E0570914F050E94EA10089515
:101C60000F931F93CF93DF938C01E0914E05F0917A
:101C70004F05838181FF1AC0C0E0D0E005C01995EF
:101C8000009711F0CFEFDFEFF80181918F016091A4
:101C90004E0570914F05DB011896ED91FC91199757
:101CA000882369F78AE01995009711F0CFEFDFEFED
:101CB000CE01DF91CF911F910F9108950F931F9344
:101CC000CF93DF93CDB7DEB72E970FB6F894DEBF74
:101CD0000FBECDBF0E891F8986E08C831A830983CE
:101CE0008FEF9FE79E838D83AE01465E5F4FCE01EF
:101CF0000196688D798D0E948D0EEF81F885E00F39
:101D0000F11F10822E960FB6F894DEBF0FBECDBF26
:101D1000DF91CF911F910F9108952F923F924F9293
:101D20005F926F927F928F929F92AF92BF92CF926B
:101D3000DF92EF92FF920F931F93CF93DF93CDB774
:101D4000DEB72D970FB6F894DEBF0FBECDBF3C01B6
:101D50007D876C875A01FC0117821682838181FF7F
:101D6000C8C12E010894411C511CF3019381EC85DC
:101D7000FD8593FD859193FF8191FD87EC878823F5
:101D800009F4B3C1853241F493FD859193FF8191AC
:101D9000FD87EC87853229F490E0B3010E94EA10B8
:101DA000E4CFFF24EE2410E01032B0F48B3269F05F
:101DB0008C3228F4803251F0833271F40BC08D32B2
:101DC00039F0803349F411602CC01260146029C0CE
:101DD000186027C0106125C017FD2EC0282F205382
:101DE0002A3098F416FF08C08F2D880FF82EFF0CAC
:101DF000FF0CF80EF20E15C08E2D880FE82EEE0C9B
:101E0000EE0CE80EE20E10620CC08E3221F416FDCC
:101E10006CC1106406C08C3611F4106802C088369C
:101E200059F4EC85FD8593FD859193FF8191FD87A4
:101E3000EC87882309F0B8CF982F9554933018F089
:101E40009052933038F424E030E0A20EB31E3FE30A
:101E500039830FC0833631F0833781F0833509F041
:101E60005AC022C0F5018081898322E030E0A20EB1
:101E7000B31E21E0C22ED12C420114C092E0292EC3
:101E8000312C2A0C3B1CF5018080918016FF03C089
:101E90006F2D70E002C06FEF7FEFC4010E949F10B2
:101EA0006C0151011F7715C082E0282E312C2A0CBD
:101EB0003B1CF5018080918016FF03C06F2D70E000
:101EC00002C06FEF7FEFC4010E9494106C01106894
:101ED000510113FD1CC006C080E290E0B3010E94D6
:101EE000EA10EA948E2D90E0C816D906A8F30FC028
:101EF000F40117FD859117FF81914F0190E0B30127
:101F00000E94EA10E110EA940894C108D108C114B3
:101F1000D10471F7E7C0843611F0893651F5F50127
:101F200017FF07C080819181A281B38124E030E056
:101F300008C080819181AA2797FDA095BA2F22E041
:101F400030E0A20EB31E012F0F76B7FF08C0B09588
:101F5000A095909581959F4FAF4FBF4F0068BC01F2
:101F6000CD01A2012AE030E00E941611D82ED4182B
:101F70003FC0853721F41F7E2AE030E020C0197F62
:101F80008F36A9F0803720F4883509F0AEC00BC039
:101F9000803721F0883709F0A8C001C0106114FF14
:101FA00009C0146007C014FF08C0166006C028E00E
:101FB00030E005C020E130E002C020E132E0F50170
:101FC00017FF07C0608171818281938144E050E0F6
:101FD00006C06081718180E090E042E050E0A40E94
:101FE000B51EA2010E941611D82ED418012F0F770A
:101FF00006FF09C00E7FDF1430F404FF06C002FDA7
:1020000004C00F7E02C01D2D01C01F2D802F90E047
:1020100004FF0CC0FE01ED0DF11D2081203311F4F1
:10202000097E09C002FF06C01E5F05C08678907059
:10203000009709F01F5F802E992403FD12C000FF56
:102040000DC0FD2C1E1550F4FE0CF11A1E2D06C0FD
:1020500080E290E0B3010E94EA101F5F1E15C0F3FA
:1020600004C01E1510F4E11A01C0EE2484FE0FC056
:1020700080E390E0B3010E94EA1082FE1FC081FE5F
:1020800003C088E590E010C088E790E00DC0C4016F
:1020900086789070009791F081FC02C080E201C0C8
:1020A0008BE207FD8DE290E0B3010E94EA1006C0CA
:1020B00080E390E0B3010E94EA10FA94DF14C0F3C9
:1020C000DA94F201ED0DF11D808190E0B3010E94E0
:1020D000EA10DD20A9F706C080E290E0B3010E947B
:1020E000EA10EA94EE20C1F740CEF3018681978191
:1020F00002C08FEF9FEF2D960FB6F894DEBF0FBE94
:10210000CDBFDF91CF911F910F91FF90EF90DF90A6
:10211000CF90BF90AF909F908F907F906F905F9087
:102120004F903F902F900895FC01059061507040B2
:102130000110D8F7809590958E0F9F1F0895FC0190
:102140006150704001900110D8F7809590958E0FE6
:102150009F1F0895CF93DF93EC012B8120FF35C0A3
:1021600026FF09C02F7B2B838E819F8101969F8341
:102170008E838A8128C022FF0FC0E881F981808187
:10218000992787FD9095009719F420622B831DC035
:102190003196F983E88311C0EA85FB85CE01199554
:1021A00097FF0BC02B813FEF8F3F930711F480E126
:1021B00001C080E2822B8B8308C02E813F812F5F7C
:1021C0003F4F3F832E8390E002C08FEF9FEFDF9160
:1021D000CF9108950F931F93CF93DF938C01EB0161
:1021E0008B8181FF1BC082FF0DC02E813F818C81BE
:1021F0009D812817390764F4E881F9810193F983F7
:10220000E88306C0E885F985802F1995009731F499
:102210008E819F8101969F838E8302C00FEF1FEFF7
:10222000C801DF91CF911F910F910895FA01AA275C
:10223000283051F1203181F1E8946F936E7F6E5F09
:102240007F4F8F4F9F4FAF4FB1E03ED0B4E03CD0B7
:10225000670F781F891F9A1FA11D680F791F8A1F9A
:10226000911DA11D6A0F711D811D911DA11D20D001
:1022700009F468943F912AE0269F11243019305DBB
:102280003193DEF6CF010895462F4770405D4193AC
:10229000B3E00FD0C9F7F6CF462F4F70405D4A33F9
:1022A00018F0495D31FD4052419302D0A9F7EACFC1
:1022B000B4E0A6959795879577956795BA95C9F7F0
:1022C00000976105710508959B01AC010A2E0694E3
:1022D0005795479537952795BA95C9F7620F731F9C
:0C22E000841F951FA01D0895F894FFCFE7
:1022EC003E20003E3E002000616464203D202564B9
:1022FC000A006572726F722E2E2E002D2D3E2563F4
:10230C0020002420002564206973206120707269EC
:10231C006D65206E756D62657220212121200A0089
:10232C00636F756E74203D2025640A0043757272CC
:10233C00656E742074656D7065726174757265205C
:10234C006973202564206465677265652E0A002D0B
:10235C002D3E25642825642920006C6F676F7574E9
:10236C002C20676F6F642062796520212121002069
:10237C00090A0D002420007072696D650077617484
:10238C00636800256420006F6E006F6666007469D8
:10239C006D6572002121212D3232320000746331BF
:1023AC00303437002121212D33333300556E6B6EC1
:1023BC006F776E20636F6D6D616E642E2E2E000034
:1023CC0000000001000000000000C006000000003A
:1023DC00000200000000CD06000000000100256492
:1023EC0000000000000000000000010202030303D3
:1023FC00030404040404040404050505050505058B
:10240C000505050505050505050606060606060669
:10241C000606060606060606060606060606060650
:10242C000606060606060606060707070707070739
:10243C000707070707070707070707070707070720
:10244C000707070707070707070707070707070710
:10245C000707070707070707070707070707070700
:10246C0007070707070707070708080808080808E9
:10247C0008080808080808080808080808080808D0
:10248C0008080808080808080808080808080808C0
:10249C0008080808080808080808080808080808B0
:1024AC0008080808080808080808080808080808A0
:1024BC000808080808080808080808080808080890
:1024CC000808080808080808080808080808080880
:1024DC000808080808080808080808080808080870
:1024EC000808080808080808080000520520000021
:00000001FF
