:100000000C9472000C9494000C9494000C94940042
:100010000C9494000C9494000C9494000C94940010
:100020000C9494000C9494000C9494000C94940000
:100030000C9494000C9494000C9494000C949400F0
:100040000C9494000C9494000C9494000C949400E0
:100050000C9494000C9494000C9494000C949400D0
:100060000C9494000C9494000C9494000C94CC0088
:100070000C9494000C9494000C9494000C949400B0
:100080000C9494000C9494000C9494000C949400A0
:100090000C9494000C9494000C9494000C94940090
:1000A0000C9494000C9494000C9494000C94940080
:1000B0000C9494000C9494000C9494000C94940070
:1000C0000C9494000C9494000C9494000C94940060
:1000D0000C9494000C9494000C9494000C94940050
:1000E0000C94940011241FBECFEFD1E2DEBFCDBF30
:1000F00000E00CBF12E0A0E0B2E0E6E5F2E000E0D4
:100100000BBF02C007900D92A433B107D9F71BBEF5
:1001100012E0A4E3B2E001C01D92A637B107E1F7F7
:100120000E940A010C9429010C9400001092C50051
:1001300087E08093C400E0ECF0E0808182608083FF
:10014000E1ECF0E08081886080838081806480833E
:100150000895BC0180913102909132020097D1F351
:10016000109232021092310286E392E00E94220144
:10017000109235021092340280913402909135022F
:10018000FC01EA5CFD4F208101969093350280933B
:1001900034022093C60008951F920F920FB60F925B
:1001A0000BB60F9211242F938F939F93EF93FF938E
:1001B000E0913402F0913502EA5CFD4F2081222368
:1001C00039F481E090E0909332028093310216C0BE
:1001D0002A3049F4E0913402F0913502EA5CFD4F97
:1001E0008DE0808309C080913402909135020196A0
:1001F00090933502809334022093C600FF91EF91D3
:100200009F918F912F910F900BBE0F900FBE0F906B
:100210001F9018950E9496007894CAE0D0E080E084
:1002200092E00E94A9008DE092E00E94A90089E17D
:1002300092E00E94A900219791F788E292E00E9443
:10024000A900FFCFFB01DC0101900D920020E1F736
:060250000895F894FFCFB1
:1002560049206C6F766520796F752E0A0049206CEF
:100266006F7665206D652E0A006865206C6F766571
:1002760073206865722E0A00456E64202121210ACA
:040286000001000073
:00000001FF
